:100000000C9462000C948A000C948A000C948A0070
:100010000C948A000C948A000C948A000C948A0038
:100020000C948A000C948A000C948A000C948A0028
:100030000C948A000C948A000C948A000C948A0018
:100040000C9427020C94C9020C9497020C94710230
:100050000C948A000C948A000C948A000C948A00F8
:100060000C948A000C948A000000000025002800EF
:100070002B0000000000240027002A0000000000E0
:1000800023002600290004040404040404040202DA
:100090000202020203030303030301020408102007
:1000A0004080010204081020010204081020000012
:1000B0000008000201000003040700000000000027
:1000C0000000FE0511241FBECFEFD8E0DEBFCDBF7C
:1000D00011E0A0E0B1E0E6E8F0E102C005900D9289
:1000E000AE33B107D9F721E0AEE3B1E001C01D9214
:1000F000A03FB207E1F710E0C2E6D0E004C02197CC
:10010000FE010E943B08C136D107C9F70E94420395
:100110000C9441080C940000833081F028F4813065
:1001200099F08230A9F008958730A9F08830C9F09D
:100130008430B1F4809180008F7D03C08091800075
:100140008F7780938000089584B58F7784BD08955C
:1001500084B58F7DFBCF8091B0008F778093B00006
:1001600008958091B0008F7DF9CFCF93DF93282F32
:1001700030E0F901E255FF4F8491F901E656FF4F57
:10018000D491F901EA57FF4FC491CC23A1F081111A
:100190000E948C00EC2FF0E0EE0FFF1FE458FF4FA1
:1001A000A591B491EC91ED2381E090E009F480E019
:1001B000DF91CF91089580E090E0FACFCF93DF9365
:1001C00090E0FC01E656FF4F24918A579F4FFC01B7
:1001D00084918823C9F090E0880F991FFC01EE58A4
:1001E000FF4FA591B491FC01E859FF4FC591D491FF
:1001F00061110DC09FB7F8948C91209582238C9348
:100200008881282328839FBFDF91CF910895623092
:1002100051F49FB7F8943C91822F809583238C935F
:10022000E8812E2BEFCF8FB7F894EC912E2B2C93E7
:100230008FBFEACFAF92BF92CF92DF92EF92FF9241
:100240000F931F93CF93DF936C017B018B01040FFE
:10025000151FEB015E01AE18BF08C017D10759F09A
:100260006991D601ED91FC910190F081E02DC601DC
:100270000995892B79F7C501DF91CF911F910F91D6
:10028000FF90EF90DF90CF90BF90AF900895FC016A
:10029000538D448D252F30E0842F90E0821B930BEB
:1002A000541710F0CF96089501970895FC01918D91
:1002B000828D981761F0A28DAE0FBF2FB11D5D9694
:1002C0008C91928D9F5F9F73928F90E008958FEF36
:1002D0009FEF0895FC01918D828D981731F0828DEA
:1002E000E80FF11D858D90E008958FEF9FEF089541
:1002F000FC01918D228D892F90E0805C9F4F821BA5
:1003000091098F73992708958AE491E00E947801FA
:1003100021E0892B09F420E0822F089580E090E00D
:10032000892B29F00E94840181110C94000008950A
:10033000FC01A48DA80FB92FB11DA35ABF4F2C915A
:10034000848D90E001968F739927848FA689B78951
:100350002C93A089B1898C91837080648C93938D48
:10036000848D981306C00288F389E02D80818F7DEB
:1003700080830895EF92FF920F931F93CF93DF93A3
:10038000EC0181E0888F9B8D8C8D98131AC0E889D1
:10039000F989808185FF15C09FB7F894EE89FF89A0
:1003A0006083E889F98980818370806480839FBF3E
:1003B00081E090E0DF91CF911F910F91FF90EF903E
:1003C0000895F62E0B8D10E00F5F1F4F0F7311274E
:1003D000E02E8C8D8E110CC00FB607FCFACFE88989
:1003E000F989808185FFF5CFCE010E949801F1CF78
:1003F000EB8DEC0FFD2FF11DE35AFF4FF0829FB7FD
:10040000F8940B8FEA89FB8980818062CFCFCF93EC
:10041000DF93EC01888D8823B9F0AA89BB89E8892C
:10042000F9898C9185FD03C0808186FD0DC00FB6D2
:1004300007FCF7CF8C9185FFF2CF808185FFEDCF50
:10044000CE010E949801E9CFDF91CF9108951F92CC
:100450000F920FB60F9211242F933F938F939F9378
:10046000AF93BF938091EC019091ED01A091EE01CB
:10047000B091EF013091EB0123E0230F2D3758F5B8
:100480000196A11DB11D2093EB018093EC01909387
:10049000ED01A093EE01B093EF018091E7019091FF
:1004A000E801A091E901B091EA010196A11DB11DF9
:1004B0008093E7019093E801A093E901B093EA01EA
:1004C000BF91AF919F918F913F912F910F900FBE50
:1004D0000F901F90189526E8230F0296A11DB11DBD
:1004E000D2CF1F920F920FB60F9211242F933F93EA
:1004F0004F935F936F937F938F939F93AF93BF932C
:10050000EF93FF938AE491E00E949801FF91EF91AD
:10051000BF91AF919F918F917F916F915F914F911B
:100520003F912F910F900FBE0F901F9018951F9223
:100530000F920FB60F9211242F938F939F93EF93E7
:10054000FF93E0915A01F0915B018081E09160019D
:10055000F091610182FD1BC09081809163018F5FEA
:100560008F7320916401821741F0E0916301F0E004
:10057000E65BFE4F958F80936301FF91EF919F9112
:100580008F912F910F900FBE0F901F901895808123
:10059000F4CF1F920F920FB60F9211242F933F9317
:1005A0008F939F93AF93BF93EF93FF939EB58091EB
:1005B0004901883008F063C0A0914901E0914901E8
:1005C00020910E01B0E0A95EBE4F8C919823F0E01F
:1005D000E15FFE4F81E03081931380E082238093BE
:1005E0000E01E0914901F0E0E050FF4F80819091D1
:1005F0004901933029F49091480191113BC08860E2
:1006000090910E01992309F437C08EBD579A0000CE
:1006100000000000000000000000000000000000DA
:1006200000000000000000000000000000000000CA
:1006300000000000000000000000000000000000BA
:1006400000000000000000000000000000005798BB
:10065000809149018F5F80934901FF91EF91BF9194
:10066000AF919F918F913F912F910F900FBE0F905F
:100670001F901895877FC4CF8FEF8EBDE9CF8FEF86
:100680008EBDEBCF789484B5826084BD84B58160E3
:1006900084BD85B5826085BD85B5816085BD80914D
:1006A0006E00816080936E001092810080918100C5
:1006B00082608093810080918100816080938100BD
:1006C000809180008160809380008091B10084607F
:1006D0008093B1008091B00081608093B0008091E0
:1006E0007A00846080937A0080917A00826080939F
:1006F0007A0080917A00816080937A0080917A00FC
:10070000806880937A001092C10060E087E00E94C8
:10071000DE00E5EBF0E08491E1EAF0E0D491EDE871
:10072000F0E0C491CC2399F081110E948C00EC2F51
:10073000F0E0EE0FFF1FE859FF4FA591B4918FB77E
:10074000F8949C91ED2FE095E923EC938FBF61E045
:100750008CE00E94DE008CB58C668CBD8CB5806808
:100760008CBD62E085E00E94DE0062E083E00E94D2
:10077000DE0062E084E00E94DE00E0915A01F09128
:100780005B0182E08083E0915A01F0915B0110826D
:10079000E0915601F09157011082E0915801F091DB
:1007A000590180E1808310926201E0915E01F09135
:1007B0005F0186E08083E0915C01F0915D018081C2
:1007C00080618083E0915C01F0915D0180818860AF
:1007D0008083E0915C01F0915D018081806880837D
:1007E000E0915C01F0915D0180818F7D80836624C2
:1007F000639480E0C82E80E0D82EAA24A394B12C64
:10080000C1E0DFEF22E0722E8AE491E00E947801DD
:100810001816190644F58AE491E00E946A018E3D9B
:10082000910509F18AE491E00E945601893491050D
:1008300081F449E050E061E371E08AE491E00E94D4
:100840001A0142E050E06BE371E08AE491E00E941B
:100850001A01C114D104C1F20E9484018823A1F2BB
:100860000E940000D1CF1A9BF4CF809149018823C8
:10087000B1F010924901C0930E0180914801882384
:1008800029F080914801815080934801809147016F
:10089000882329F08091470181508093470185E0AA
:1008A0000E94B50090930D0180930C01B0920B0152
:1008B000A0920A0183E00E94B50090930901809301
:1008C000080184E00E94B5009C0191E021153105EA
:1008D00009F090E0232B31F480914601811102C090
:1008E00070924701909346018AE491E00E9478015A
:1008F00006970CF406C18AE491E00E9456014C016F
:100900008AE491E00E9456017C018AE491E00E9411
:1009100056018C018AE491E00E945601582E8AE427
:1009200091E00E945601482E8AE491E00E9456010F
:100930002EED8216910419F48F3D910599F010E087
:1009400000E00F3D110509F484CF8AE491E00E9494
:10095000780118161906ACF78AE491E00E94560156
:100960008C01EFCF5092450140924401652D8AE4FD
:1009700091E00E94BA01C70103978A3F910528F4CC
:10098000C80103978A3F910548F010920401109224
:10099000050110920601109207014DC0B701FF0C2E
:1009A000880B990B0E94420720E030E04FE753E4A8
:1009B0000E94980620E030E040EC53E40E94CE070D
:1009C00020E030E04AE952E40E942C060E940A0727
:1009D000962EE62EF72EB801110F880B990B0E9468
:1009E000420720E030E04FE753E40E94980620E001
:1009F00030E843E853E40E94CE0720E030E040E0D6
:100A000052E40E942C060E940A07CB012FEFE21647
:100A1000F10409F00CF491C0939490920401C093F6
:100A200005018F3F910509F00CF48CC06F5F609356
:100A30000601C0930701D0930201D0930301809176
:100A4000450180FD82C081E020910C0130910D01B3
:100A5000232B09F080E09091450191FD78C09091A1
:100A6000450192FD74C09091450195FD70C091E0E3
:100A700020910A0130910B01232B09F090E0209185
:100A8000450123FD0BC02091450124FD07C02091A5
:100A9000080130910901232B09F05BC0209103016B
:100AA0002F7B2093030131E0992329F0209102014B
:100AB000277F20930201882351F0209103012F7D8D
:100AC00020930301992309F490C0311144C010927E
:100AD000400110924101109242011092430190E0B6
:100AE000882319F090913E01962520913F01222301
:100AF00031F0992321F07092480110923F018093C8
:100B00003E018091480181116CC080910301886091
:100B10008093030180914701882309F49ACED093F2
:100B20000401C0930501D0930601C0930701809191
:100B300003018F7D809303018CCE9092040110926B
:100B400005016FCF6093060126CF81E084CF91E04D
:100B500096CF30E0A9CF882309F4B9CF4091400166
:100B6000509141016091420170914301452B462B08
:100B7000472B99F49FB7F8944091EC015091ED0107
:100B80006091EE017091EF019FBF4093400150933F
:100B90004101609342017093430190913F01911193
:100BA000A1CF9FB7F8944091EC015091ED01609175
:100BB000EE017091EF019FBF009140011091410142
:100BC0002091420130914301401B510B620B730B8A
:100BD000483E53406105710508F484CFC0933F013E
:100BE00081CF80910301877F93CF109240011092B3
:100BF0004101109242011092430174CFEAE4F1E006
:100C00001382128288EE93E0A0E0B0E084839583A3
:100C1000A683B78383E291E09183808385EC90E0A3
:100C20009587848784EC90E09787868780EC90E0B6
:100C3000918B808B81EC90E0938B828B82EC90E0A7
:100C4000958B848B86EC90E0978B868B118E128E21
:100C5000138E148E08955058BB27AA270E9443066E
:100C60000C9494070E94860738F00E948D0720F0AC
:100C700039F49F3F19F426F40C9483070EF4E095A1
:100C8000E7FB0C947D07E92F0E94A50758F3BA17DC
:100C9000620773078407950720F079F4A6F50C9492
:100CA000C7070EF4E0950B2EBA2FA02D0B01B9014A
:100CB00090010C01CA01A0011124FF27591B99F0D2
:100CC000593F50F4503E68F11A16F040A22F232FDE
:100CD000342F4427585FF3CF469537952795A7952E
:100CE000F0405395C9F77EF41F16BA0B620B730BD5
:100CF000840BBAF09150A1F0FF0FBB1F661F771F46
:100D0000881FC2F70EC0BA0F621F731F841F48F4FA
:100D1000879577956795B795F7959E3F08F0B0CF83
:100D20009395880F08F09927EE0F9795879508956A
:100D30000E94AC060C9494070E948D0758F00E9404
:100D4000860740F029F45F3F29F00C947D0751118C
:100D50000C94C8070C9483070E94A50768F3992395
:100D6000B1F3552391F3951B550BBB27AA276217A7
:100D70007307840738F09F5F5F4F220F331F441FB4
:100D8000AA1FA9F335D00E2E3AF0E0E832D09150E8
:100D90005040E695001CCAF72BD0FE2F29D0660FD5
:100DA000771F881FBB1F261737074807AB07B0E818
:100DB00009F0BB0B802DBF01FF2793585F4F3AF01E
:100DC0009E3F510578F00C947D070C94C8075F3F57
:100DD000E4F3983ED4F3869577956795B795F795A4
:100DE0009F5FC9F7880F911D9695879597F908958C
:100DF000E1E0660F771F881FBB1F62177307840728
:100E0000BA0720F0621B730B840BBA0BEE1F88F736
:100E1000E09508950E9411076894B1110C94C807D9
:100E200008950E94AD0788F09F5798F0B92F992731
:100E3000B751B0F0E1F0660F771F881F991F1AF0C5
:100E4000BA95C9F714C0B13091F00E94C707B1E05C
:100E500008950C94C707672F782F8827B85F39F05B
:100E6000B93FCCF3869577956795B395D9F73EF45E
:100E700090958095709561957F4F8F4F9F4F089506
:100E8000E89409C097FB3EF4909580957095619524
:100E90007F4F8F4F9F4F9923A9F0F92F96E9BB27DA
:100EA0009395F695879577956795B795F111F8CF56
:100EB000FAF4BB0F11F460FF1BC06F5F7F4F8F4FC1
:100EC0009F4F16C0882311F096E911C0772321F0B7
:100ED0009EE8872F762F05C0662371F096E8862F4F
:100EE00070E060E02AF09A95660F771F881FDAF7A6
:100EF000880F9695879597F9089597F99F6780E8E9
:100F000070E060E008959FEF80EC089500240A945B
:100F10001616170618060906089500240A941216D4
:100F20001306140605060895092E0394000C11F407
:100F3000882352F0BB0F40F4BF2B11F460FF04C0B4
:100F40006F5F7F4F8F4F9F4F089557FD9058440F0D
:100F5000551F59F05F3F71F04795880F97FB991F18
:100F600061F09F3F79F087950895121613061406D5
:100F7000551FF2CF4695F1DF08C016161706180662
:100F8000991FF1CF86957105610508940895E8943D
:100F9000BB2766277727CB0197F908950E94E107C1
:100FA0000C9494070E94860738F00E948D0720F069
:100FB000952311F00C947D070C94830711240C9455
:100FC000C8070E94A50770F3959FC1F3950F50E0E5
:100FD000551F629FF001729FBB27F00DB11D639FEB
:100FE000AA27F00DB11DAA1F649F6627B00DA11D91
:100FF000661F829F2227B00DA11D621F739FB00D37
:10100000A11D621F839FA00D611D221F749F3327A6
:10101000A00D611D231F849F600D211D822F762F3F
:101020006A2F11249F5750409AF0F1F088234AF01C
:10103000EE0FFF1FBB1F661F771F881F9150504088
:10104000A9F79E3F510580F00C947D070C94C807CA
:101050005F3FE4F3983ED4F3869577956795B7950F
:10106000F795E7959F5FC1F7FE2B880F911D969529
:10107000879597F90895EE0FFF1F0590F491E02DE5
:061080000994F894FFCF73
:10108600635AFFFF01000500010001000100010194
:1010960042000000000000FFFF000000000000000A
:1010A600000000BA011A0147010702780156016AD9
:0E10B600014E414D434F2D444854000D0A0099
:00000001FF
