:100000000C9462000C948A000C948A000C948A0070
:100010000C948A000C948A000C948A000C948A0038
:100020000C948A000C948A000C948A000C948A0028
:100030000C948A000C948A000C948A000C948A0018
:100040000C9427020C94C9020C9497020C94710230
:100050000C948A000C948A000C948A000C948A00F8
:100060000C948A000C948A000000000025002800EF
:100070002B0000000000240027002A0000000000E0
:1000800023002600290004040404040404040202DA
:100090000202020203030303030301020408102007
:1000A0004080010204081020010204081020000012
:1000B0000008000201000003040700000000000027
:1000C0000000ED0411241FBECFEFD8E0DEBFCDBF8E
:1000D00011E0A0E0B1E0E4E6FEE002C005900D9280
:1000E000AC32B107D9F721E0ACE2B1E001C01D921A
:1000F000A93DB207E1F710E0C2E6D0E004C02197C5
:10010000FE010E942A07C136D107C9F70E942E03BB
:100110000C9430070C940000833081F028F4813077
:1001200099F08230A9F008958730A9F08830C9F09D
:100130008430B1F4809180008F7D03C08091800075
:100140008F7780938000089584B58F7784BD08955C
:1001500084B58F7DFBCF8091B0008F778093B00006
:1001600008958091B0008F7DF9CFCF93DF93282F32
:1001700030E0F901E255FF4F8491F901E656FF4F57
:10018000D491F901EA57FF4FC491CC23A1F081111A
:100190000E948C00EC2FF0E0EE0FFF1FE458FF4FA1
:1001A000A591B491EC91ED2381E090E009F480E019
:1001B000DF91CF91089580E090E0FACFCF93DF9365
:1001C00090E0FC01E656FF4F24918A579F4FFC01B7
:1001D00084918823C9F090E0880F991FFC01EE58A4
:1001E000FF4FA591B491FC01E859FF4FC591D491FF
:1001F00061110DC09FB7F8948C91209582238C9348
:100200008881282328839FBFDF91CF910895623092
:1002100051F49FB7F8943C91822F809583238C935F
:10022000E8812E2BEFCF8FB7F894EC912E2B2C93E7
:100230008FBFEACFAF92BF92CF92DF92EF92FF9241
:100240000F931F93CF93DF936C017B018B01040FFE
:10025000151FEB015E01AE18BF08C017D10759F09A
:100260006991D601ED91FC910190F081E02DC601DC
:100270000995892B79F7C501DF91CF911F910F91D6
:10028000FF90EF90DF90CF90BF90AF900895FC016A
:10029000538D448D252F30E0842F90E0821B930BEB
:1002A000541710F0CF96089501970895FC01918D91
:1002B000828D981761F0A28DAE0FBF2FB11D5D9694
:1002C0008C91928D9F5F9F73928F90E008958FEF36
:1002D0009FEF0895FC01918D828D981731F0828DEA
:1002E000E80FF11D858D90E008958FEF9FEF089541
:1002F000FC01918D228D892F90E0805C9F4F821BA5
:1003000091098F73992708958CE291E00E947801FA
:1003100021E0892B09F420E0822F089580E090E00D
:10032000892B29F00E94840181110C94000008950A
:10033000FC01A48DA80FB92FB11DA35ABF4F2C915A
:10034000848D90E001968F739927848FA689B78951
:100350002C93A089B1898C91837080648C93938D48
:10036000848D981306C00288F389E02D80818F7DEB
:1003700080830895EF92FF920F931F93CF93DF93A3
:10038000EC0181E0888F9B8D8C8D98131AC0E889D1
:10039000F989808185FF15C09FB7F894EE89FF89A0
:1003A0006083E889F98980818370806480839FBF3E
:1003B00081E090E0DF91CF911F910F91FF90EF903E
:1003C0000895F62E0B8D10E00F5F1F4F0F7311274E
:1003D000E02E8C8D8E110CC00FB607FCFACFE88989
:1003E000F989808185FFF5CFCE010E949801F1CF78
:1003F000EB8DEC0FFD2FF11DE35AFF4FF0829FB7FD
:10040000F8940B8FEA89FB8980818062CFCFCF93EC
:10041000DF93EC01888D8823B9F0AA89BB89E8892C
:10042000F9898C9185FD03C0808186FD0DC00FB6D2
:1004300007FCF7CF8C9185FFF2CF808185FFEDCF50
:10044000CE010E949801E9CFDF91CF9108951F92CC
:100450000F920FB60F9211242F933F938F939F9378
:10046000AF93BF938091D5019091D601A091D70110
:10047000B091D8013091D40123E0230F2D3758F5E6
:100480000196A11DB11D2093D4018093D5019093B5
:10049000D601A093D701B093D8018091D00190915B
:1004A000D101A091D201B091D3010196A11DB11D3E
:1004B0008093D0019093D101A093D201B093D30146
:1004C000BF91AF919F918F913F912F910F900FBE50
:1004D0000F901F90189526E8230F0296A11DB11DBD
:1004E000D2CF1F920F920FB60F9211242F933F93EA
:1004F0004F935F936F937F938F939F93AF93BF932C
:10050000EF93FF938CE291E00E949801FF91EF91AD
:10051000BF91AF919F918F917F916F915F914F911B
:100520003F912F910F900FBE0F901F9018951F9223
:100530000F920FB60F9211242F938F939F93EF93E7
:10054000FF93E0913C01F0913D018081E0914201F7
:10055000F091430182FD1BC09081809145018F5F26
:100560008F7320914601821741F0E0914501F0E040
:10057000E45DFE4F958F80934501FF91EF919F9130
:100580008F912F910F900FBE0F901F901895808123
:10059000F4CF1F920F920FB60F9211242F933F9317
:1005A0004F938F939F93EF93FF933EB58091CF012D
:1005B000883008F050C090E0FC01EF5EFE4F2081D3
:1005C0003223FC01E75FFE4F21E04081341320E03D
:1005D00030910801232320930801222309F438C015
:1005E00080509F4FFC0180818EBD579A0000000013
:1005F00000000000000000000000000000000000FB
:1006000000000000000000000000000000000000EA
:1006100000000000000000000000000000000000DA
:1006200000000000000000000000000057988091CA
:10063000CF018F5F8093CF01FF91EF919F918F91B9
:100640004F913F912F910F900FBE0F901F901895D3
:100650008FEF8EBDECCF8FEF8EBDEECF789484B54B
:10066000826084BD84B5816084BD85B5826085BDAE
:1006700085B5816085BD80916E00816080936E003C
:10068000109281008091810082608093810080912E
:1006900081008160809381008091800081608093DF
:1006A00080008091B10084608093B1008091B0009F
:1006B00081608093B00080917A00846080937A009A
:1006C00080917A00826080937A0080917A008160C4
:1006D00080937A0080917A00806880937A001092EB
:1006E000C10060E087E00E94DE00E5EBF0E084916D
:1006F000E1EAF0E0D491EDE8F0E0C491CC2399F088
:1007000081110E948C00EC2FF0E0EE0FFF1FE859E2
:10071000FF4FA591B4918FB7F8949C91ED2FE09580
:10072000E923EC938FBF61E08CE00E94DE008CB582
:100730008C668CBD8CB580688CBD62E085E00E94C3
:10074000DE0062E084E00E94DE0062E083E00E945E
:10075000DE00E0913C01F0913D0182E08083E09178
:100760003C01F0913D011082E0913801F091390196
:100770001082E0913A01F0913B0180E18083109278
:100780004401E0914001F091410186E08083E091D5
:100790003E01F0913F01808180618083E0913E01C4
:1007A000F0913F01808188608083E0913E01F0916B
:1007B0003F01808180688083E0913E01F0913F019C
:1007C00080818F7D808380E0A82E80E0B82E0FEF9F
:1007D00097EF792E2FEB622E11E01A9BEAC08091E1
:1007E000CF01882321F01092CF011093080185E0FA
:1007F0000E94B5009093CE018093CD0184E00E94C9
:10080000B5009093CC018093CB0183E00E94B500AA
:100810009093CA018093C9018CE291E00E94780113
:1008200006970CF4C6C08CE291E00E9456014C0180
:100830008CE291E00E945601EC018CE291E00E9472
:1008400056016C018CE291E00E9456017C018CE221
:1008500091E00E9456018CE291E00E9456012EED3B
:100860008216910419F48F3D910599F0D0E0C0E013
:10087000CF3DD10509F49DC08CE291E00E94780142
:1008800018161906ACF78CE291E00E945601EC01B3
:10089000EFCF6E2D8CE291E00E94BA01CE0103975A
:1008A0008A3F910528F4C60103978A3F910550F0CD
:1008B000109304011092050185E0809306011092C7
:1008C00007014CC0BE01DD0F880B990B0E94310659
:1008D00020E030E04FE753E40E94870520E030E05D
:1008E00040EC53E40E94BD0620E030E04AE952E4C7
:1008F0000E941B050E94F905962EC62FD72FB60120
:10090000DD0C880B990B0E94310620E030E04FE7A8
:1009100053E40E94870520E030E843E853E40E9456
:10092000BD0620E030E040E052E40E941B050E943A
:10093000F905CB01CF3FD10509F00CF446C09394E3
:1009400090920401109305018F3F910509F00CF47A
:1009500041C06F5F6093060110930701009302018D
:1009600000930301C70188719927892B31F4809185
:10097000C9019091CA01892B11F460920301C7014A
:1009800086729927892B31F48091CB019091CC010B
:10099000892B11F470920201E0FC06C08091CD0118
:1009A0009091CE01892B29F4809103018F7D809352
:1009B0000301A114B10409F410CF0E94840188231B
:1009C00009F40BCF0E94000008CF9092040110920E
:1009D0000501BACF6093060172CFECE2F1E0138219
:1009E000128288EE93E0A0E0B0E084839583A68332
:1009F000B7838DE191E09183808385EC90E09587CA
:100A0000848784EC90E09787868780EC90E0918BD8
:100A1000808B81EC90E0938B828B82EC90E0958BC5
:100A2000848B86EC90E0978B868B118E128E138EC2
:100A3000148E08955058BB27AA270E9432050C94A3
:100A400083060E94750638F00E947C0620F039F477
:100A50009F3F19F426F40C9472060EF4E095E7FB20
:100A60000C946C06E92F0E94940658F3BA1762079B
:100A700073078407950720F079F4A6F50C94B60661
:100A80000EF4E0950B2EBA2FA02D0B01B9019001A9
:100A90000C01CA01A0011124FF27591B99F0593FED
:100AA00050F4503E68F11A16F040A22F232F342F35
:100AB0004427585FF3CF469537952795A795F04083
:100AC0005395C9F77EF41F16BA0B620B730B840B98
:100AD000BAF09150A1F0FF0FBB1F661F771F881F50
:100AE000C2F70EC0BA0F621F731F841F48F48795A8
:100AF00077956795B795F7959E3F08F0B0CF93959A
:100B0000880F08F09927EE0F9795879508950E9412
:100B10009B050C9483060E947C0658F00E94750683
:100B200040F029F45F3F29F00C946C0651110C94AD
:100B3000B7060C9472060E94940668F39923B1F3E9
:100B4000552391F3951B550BBB27AA2762177307F3
:100B5000840738F09F5F5F4F220F331F441FAA1F87
:100B6000A9F335D00E2E3AF0E0E832D09150504043
:100B7000E695001CCAF72BD0FE2F29D0660F771FF1
:100B8000881FBB1F261737074807AB07B0E809F0D7
:100B9000BB0B802DBF01FF2793585F4F3AF09E3F5C
:100BA000510578F00C946C060C94B7065F3FE4F3A3
:100BB000983ED4F3869577956795B795F7959F5F9F
:100BC000C9F7880F911D9695879597F90895E1E0EB
:100BD000660F771F881FBB1F621773078407BA074A
:100BE00020F0621B730B840BBA0BEE1F88F7E095A5
:100BF00008950E9400066894B1110C94B7060895F8
:100C00000E949C0688F09F5798F0B92F9927B751FA
:100C1000B0F0E1F0660F771F881F991F1AF0BA95A0
:100C2000C9F714C0B13091F00E94B606B1E0089542
:100C30000C94B606672F782F8827B85F39F0B93F34
:100C4000CCF3869577956795B395D9F73EF4909553
:100C50008095709561957F4F8F4F9F4F0895E894D1
:100C600009C097FB3EF490958095709561957F4FF4
:100C70008F4F9F4F9923A9F0F92F96E9BB279395A2
:100C8000F695879577956795B795F111F8CFFAF4B2
:100C9000BB0F11F460FF1BC06F5F7F4F8F4F9F4FE3
:100CA00016C0882311F096E911C0772321F09EE841
:100CB000872F762F05C0662371F096E8862F70E0A7
:100CC00060E02AF09A95660F771F881FDAF7880F81
:100CD0009695879597F9089597F99F6780E870E052
:100CE00060E008959FEF80EC089500240A941616A2
:100CF000170618060906089500240A94121613060A
:100D0000140605060895092E0394000C11F4882397
:100D100052F0BB0F40F4BF2B11F460FF04C06F5FB3
:100D20007F4F8F4F9F4F089557FD9058440F551F89
:100D300059F05F3F71F04795880F97FB991F61F05D
:100D40009F3F79F087950895121613061406551FD4
:100D5000F2CF4695F1DF08C0161617061806991F40
:100D6000F1CF86957105610508940895E894BB2735
:100D700066277727CB0197F908950E94D0060C9437
:100D800083060E94750638F00E947C0620F09523A9
:100D900011F00C946C060C94720611240C94B70696
:100DA0000E94940670F3959FC1F3950F50E0551F74
:100DB000629FF001729FBB27F00DB11D639FAA27B0
:100DC000F00DB11DAA1F649F6627B00DA11D661FFF
:100DD000829F2227B00DA11D621F739FB00DA11D20
:100DE000621F839FA00D611D221F749F3327A00DDA
:100DF000611D231F849F600D211D822F762F6A2F76
:100E000011249F5750409AF0F1F088234AF0EE0FDA
:100E1000FF1FBB1F661F771F881F91505040A9F707
:100E20009E3F510580F00C946C060C94B7065F3F12
:100E3000E4F3983ED4F3869577956795B795F79543
:100E4000E7959F5FC1F7FE2B880F911D96958795BB
:100E500097F90895EE0FFF1F0590F491E02D099486
:040E6000F894FFCF34
:100E6400635AFFFF01000500010142000000000079
:100E740000FFFF00000000000000000000BA011A9B
:0C0E84000147010702780156016A0100D5
:00000001FF
