:100000000C9462000C948A000C948A000C948A0070
:100010000C948A000C948A000C948A000C948A0038
:100020000C948A000C948A000C948A000C948A0028
:100030000C948A000C948A000C948A000C948A0018
:100040000C9427020C94C9020C9497020C94710230
:100050000C948A000C948A000C948A000C948A00F8
:100060000C948A000C948A000000000025002800EF
:100070002B0000000000240027002A0000000000E0
:1000800023002600290004040404040404040202DA
:100090000202020203030303030301020408102007
:1000A0004080010204081020010204081020000012
:1000B0000008000201000003040700000000000027
:1000C0000000D90511241FBECFEFD8E0DEBFCDBFA1
:1000D00011E0A0E0B1E0ECE3F0E102C005900D9288
:1000E000A233B107D9F721E0A2E3B1E001C01D922C
:1000F000A43EB207E1F710E0C2E6D0E004C02197C9
:10010000FE010E941608C136D107C9F70E944203BA
:100110000C941C080C940000833081F028F481308A
:1001200099F08230A9F008958730A9F08830C9F09D
:100130008430B1F4809180008F7D03C08091800075
:100140008F7780938000089584B58F7784BD08955C
:1001500084B58F7DFBCF8091B0008F778093B00006
:1001600008958091B0008F7DF9CFCF93DF93282F32
:1001700030E0F901E255FF4F8491F901E656FF4F57
:10018000D491F901EA57FF4FC491CC23A1F081111A
:100190000E948C00EC2FF0E0EE0FFF1FE458FF4FA1
:1001A000A591B491EC91ED2381E090E009F480E019
:1001B000DF91CF91089580E090E0FACFCF93DF9365
:1001C00090E0FC01E656FF4F24918A579F4FFC01B7
:1001D00084918823C9F090E0880F991FFC01EE58A4
:1001E000FF4FA591B491FC01E859FF4FC591D491FF
:1001F00061110DC09FB7F8948C91209582238C9348
:100200008881282328839FBFDF91CF910895623092
:1002100051F49FB7F8943C91822F809583238C935F
:10022000E8812E2BEFCF8FB7F894EC912E2B2C93E7
:100230008FBFEACFAF92BF92CF92DF92EF92FF9241
:100240000F931F93CF93DF936C017B018B01040FFE
:10025000151FEB015E01AE18BF08C017D10759F09A
:100260006991D601ED91FC910190F081E02DC601DC
:100270000995892B79F7C501DF91CF911F910F91D6
:10028000FF90EF90DF90CF90BF90AF900895FC016A
:10029000538D448D252F30E0842F90E0821B930BEB
:1002A000541710F0CF96089501970895FC01918D91
:1002B000828D981761F0A28DAE0FBF2FB11D5D9694
:1002C0008C91928D9F5F9F73928F90E008958FEF36
:1002D0009FEF0895FC01918D828D981731F0828DEA
:1002E000E80FF11D858D90E008958FEF9FEF089541
:1002F000FC01918D228D892F90E0805C9F4F821BA5
:1003000091098F73992708958AE391E00E947801FB
:1003100021E0892B09F420E0822F089580E090E00D
:10032000892B29F00E94840181110C94000008950A
:10033000FC01A48DA80FB92FB11DA35ABF4F2C915A
:10034000848D90E001968F739927848FA689B78951
:100350002C93A089B1898C91837080648C93938D48
:10036000848D981306C00288F389E02D80818F7DEB
:1003700080830895EF92FF920F931F93CF93DF93A3
:10038000EC0181E0888F9B8D8C8D98131AC0E889D1
:10039000F989808185FF15C09FB7F894EE89FF89A0
:1003A0006083E889F98980818370806480839FBF3E
:1003B00081E090E0DF91CF911F910F91FF90EF903E
:1003C0000895F62E0B8D10E00F5F1F4F0F7311274E
:1003D000E02E8C8D8E110CC00FB607FCFACFE88989
:1003E000F989808185FFF5CFCE010E949801F1CF78
:1003F000EB8DEC0FFD2FF11DE35AFF4FF0829FB7FD
:10040000F8940B8FEA89FB8980818062CFCFCF93EC
:10041000DF93EC01888D8823B9F0AA89BB89E8892C
:10042000F9898C9185FD03C0808186FD0DC00FB6D2
:1004300007FCF7CF8C9185FFF2CF808185FFEDCF50
:10044000CE010E949801E9CFDF91CF9108951F92CC
:100450000F920FB60F9211242F933F938F939F9378
:10046000AF93BF938091E0019091E101A091E201EF
:10047000B091E3013091DF0123E0230F2D3758F5D0
:100480000196A11DB11D2093DF018093E00190939F
:10049000E101A093E201B093E3018091DB0190912F
:1004A000DC01A091DD01B091DE010196A11DB11D1D
:1004B0008093DB019093DC01A093DD01B093DE011A
:1004C000BF91AF919F918F913F912F910F900FBE50
:1004D0000F901F90189526E8230F0296A11DB11DBD
:1004E000D2CF1F920F920FB60F9211242F933F93EA
:1004F0004F935F936F937F938F939F93AF93BF932C
:10050000EF93FF938AE391E00E949801FF91EF91AE
:10051000BF91AF919F918F917F916F915F914F911B
:100520003F912F910F900FBE0F901F9018951F9223
:100530000F920FB60F9211242F938F939F93EF93E7
:10054000FF93E0914A01F0914B018081E0915001CD
:10055000F091510182FD1BC09081809153018F5F0A
:100560008F7320915401821741F0E0915301F0E024
:10057000E65CFE4F958F80935301FF91EF919F9121
:100580008F912F910F900FBE0F901F901895808123
:10059000F4CF1F920F920FB60F9211242F933F9317
:1005A0008F939F93AF93BF93EF93FF939EB58091EB
:1005B000DA01883008F063C0A091DA01E091DA0135
:1005C00020910E01B0E0A95EBE4F8C919823F0E01F
:1005D000E15FFE4F81E03081931380E082238093BE
:1005E0000E01E091DA01F0E0E050FF4F8081909140
:1005F000DA01933029F49091D90191113BC08860C0
:1006000090910E01992309F437C08EBD579A0000CE
:1006100000000000000000000000000000000000DA
:1006200000000000000000000000000000000000CA
:1006300000000000000000000000000000000000BA
:1006400000000000000000000000000000005798BB
:100650008091DA018F5F8093DA01FF91EF91BF9172
:10066000AF919F918F913F912F910F900FBE0F905F
:100670001F901895877FC4CF8FEF8EBDE9CF8FEF86
:100680008EBDEBCF789484B5826084BD84B58160E3
:1006900084BD85B5826085BD85B5816085BD80914D
:1006A0006E00816080936E001092810080918100C5
:1006B00082608093810080918100816080938100BD
:1006C000809180008160809380008091B10084607F
:1006D0008093B1008091B00081608093B0008091E0
:1006E0007A00846080937A0080917A00826080939F
:1006F0007A0080917A00816080937A0080917A00FC
:10070000806880937A001092C10060E087E00E94C8
:10071000DE00E5EBF0E08491E1EAF0E0D491EDE871
:10072000F0E0C491CC2399F081110E948C00EC2F51
:10073000F0E0EE0FFF1FE859FF4FA591B4918FB77E
:10074000F8949C91ED2FE095E923EC938FBF61E045
:100750008CE00E94DE008CB58C668CBD8CB5806808
:100760008CBD62E085E00E94DE0062E083E00E94D2
:10077000DE0062E084E00E94DE00E0914A01F09138
:100780004B0182E08083E0914A01F0914B0110829D
:10079000E0914601F09147011082E0914801F0910B
:1007A000490180E1808310925201E0914E01F09165
:1007B0004F0186E08083E0914C01F0914D018081F2
:1007C00080618083E0914C01F0914D0180818860CF
:1007D0008083E0914C01F0914D018081806880839D
:1007E000E0914C01F0914D0180818F7D80836624E2
:1007F000639480E0C82E80E0D82EAA24A394B12C64
:10080000C1E0DFEF22E0722E1A9B66C18091DA010F
:100810008823B1F01092DA01C0930E018091D901C2
:10082000882329F08091D90181508093D90180914A
:10083000D801882329F08091D80181508093D80174
:1008400085E00E94B50090930D0180930C01B09259
:100850000B01A0920A0183E00E94B5009093090168
:100860008093080184E00E94B5009C0191E021156D
:10087000310509F090E0232B31F48091D7018111EB
:1008800002C07092D8019093D7018AE391E00E9450
:10089000780106970CF406C18AE391E00E945601A4
:1008A0004C018AE391E00E9456017C018AE391E0C9
:1008B0000E9456018C018AE391E00E945601582E55
:1008C0008AE391E00E945601482E8AE391E00E945B
:1008D00056012EED8216910419F48F3D910599F081
:1008E00010E000E00F3D110509F4F6C08AE391E045
:1008F0000E94780118161906ACF78AE391E00E946D
:1009000056018C01EFCF5092390140923801652D8C
:100910008AE391E00E94BA01C70103978A3F9105DB
:1009200028F4C80103978A3F910548F0109204010A
:100930001092050110920601109207014DC0B701F7
:10094000FF0C880B990B0E941D0720E030E04FE759
:1009500053E40E94730620E030E040EC53E40E9430
:10096000A90720E030E04AE952E40E9407060E940D
:10097000E506962EE62EF72EB801110F880B990B7F
:100980000E941D0720E030E04FE753E40E94730609
:1009900020E030E843E853E40E94A90720E030E07B
:1009A00040E052E40E9407060E94E506CB012FEFCB
:1009B000E216F10409F00CF49BC0939490920401A8
:1009C000C09305018F3F910509F00CF496C06F5F4D
:1009D00060930601C0930701D0930201D0930301F5
:1009E0008091390180FD8CC081E020910C01309113
:1009F0000D01232B09F080E09091390191FD82C017
:100A00009091390192FD7EC09091390195FD7AC097
:100A100091E020910A0130910B01232B09F090E025
:100A20002091390123FD0BC02091390124FD07C01D
:100A30002091080130910901232B09F065C0209114
:100A400003012F7B2093030131E0992329F02091AA
:100A50000201277F20930201882351F02091030196
:100A60002F7D20930301992309F49AC031114EC0C0
:100A70001092340110923501109236011092370114
:100A800090E0882319F0909132019625209133014E
:100A9000222331F0992321F07092D9011092330171
:100AA000809332018091D901811176C08091030138
:100AB0008860809303018091D801882369F0D093E6
:100AC0000401C0930501D0930601C09307018091F2
:100AD00003018F7D80930301C114D10409F494CEE6
:100AE0000E948401882309F48FCE0E9400008CCEDE
:100AF000909204011092050165CF609306011CCF0E
:100B000081E07ACF91E08CCF30E09FCF882309F449
:100B1000AFCF409134015091350160913601709111
:100B20003701452B462B472B99F49FB7F8944091FA
:100B3000E0015091E1016091E2017091E3019FBFFA
:100B4000409334015093350160933601709337011F
:100B500090913301911197CF9FB7F8944091E001A4
:100B60005091E1016091E2017091E3019FBF00911A
:100B70003401109135012091360130913701401B2D
:100B8000510B620B730B483E53406105710508F42D
:100B90007ACFC093330177CF80910301877F89CFCC
:100BA00010923401109235011092360110923701E3
:100BB0006ACFEAE3F1E01382128288EE93E0A0E0CC
:100BC000B0E084839583A683B78383E291E0918329
:100BD000808385EC90E09587848784EC90E097870C
:100BE000868780EC90E0918B808B81EC90E0938BFA
:100BF000828B82EC90E0958B848B86EC90E0978BD7
:100C0000868B118E128E138E148E08955058BB272A
:100C1000AA270E941E060C946F070E94610738F0F5
:100C20000E94680720F039F49F3F19F426F40C94D1
:100C30005E070EF4E095E7FB0C945807E92F0E943D
:100C4000800758F3BA17620773078407950720F0E7
:100C500079F4A6F50C94A2070EF4E0950B2EBA2FAA
:100C6000A02D0B01B90190010C01CA01A0011124B2
:100C7000FF27591B99F0593F50F4503E68F11A165E
:100C8000F040A22F232F342F4427585FF3CF4695EF
:100C900037952795A795F0405395C9F77EF41F1611
:100CA000BA0B620B730B840BBAF09150A1F0FF0FDB
:100CB000BB1F661F771F881FC2F70EC0BA0F621FC7
:100CC000731F841F48F4879577956795B795F795B7
:100CD0009E3F08F0B0CF9395880F08F09927EE0F4C
:100CE0009795879508950E9487060C946F070E9438
:100CF000680758F00E94610740F029F45F3F29F02F
:100D00000C94580751110C94A3070C945E070E9491
:100D1000800768F39923B1F3552391F3951B550B85
:100D2000BB27AA2762177307840738F09F5F5F4FBE
:100D3000220F331F441FAA1FA9F335D00E2E3AF0FD
:100D4000E0E832D091505040E695001CCAF72BD015
:100D5000FE2F29D0660F771F881FBB1F2617370766
:100D60004807AB07B0E809F0BB0B802DBF01FF2798
:100D700093585F4F3AF09E3F510578F00C94580716
:100D80000C94A3075F3FE4F3983ED4F386957795E0
:100D90006795B795F7959F5FC9F7880F911D969551
:100DA000879597F90895E1E0660F771F881FBB1FAD
:100DB000621773078407BA0720F0621B730B840B5A
:100DC000BA0BEE1F88F7E09508950E94EC06689430
:100DD000B1110C94A30708950E94880788F09F57CB
:100DE00098F0B92F9927B751B0F0E1F0660F771F4F
:100DF000881F991F1AF0BA95C9F714C0B13091F045
:100E00000E94A207B1E008950C94A207672F782FE3
:100E10008827B85F39F0B93FCCF386957795679509
:100E2000B395D9F73EF490958095709561957F4F75
:100E30008F4F9F4F0895E89409C097FB3EF490951B
:100E40008095709561957F4F8F4F9F4F9923A9F0A3
:100E5000F92F96E9BB279395F69587957795679532
:100E6000B795F111F8CFFAF4BB0F11F460FF1BC076
:100E70006F5F7F4F8F4F9F4F16C0882311F096E909
:100E800011C0772321F09EE8872F762F05C06623B7
:100E900071F096E8862F70E060E02AF09A95660F70
:100EA000771F881FDAF7880F9695879597F9089529
:100EB00097F99F6780E870E060E008959FEF80EC0D
:100EC000089500240A9416161706180609060895B0
:100ED00000240A9412161306140605060895092E16
:100EE0000394000C11F4882352F0BB0F40F4BF2B85
:100EF00011F460FF04C06F5F7F4F8F4F9F4F0895C5
:100F000057FD9058440F551F59F05F3F71F04795BA
:100F1000880F97FB991F61F09F3F79F0879508959F
:100F2000121613061406551FF2CF4695F1DF08C0BE
:100F3000161617061806991FF1CF869571056105DB
:100F400008940895E894BB2766277727CB0197F983
:100F500008950E94BC070C946F070E94610738F047
:100F60000E94680720F0952311F00C9458070C9408
:100F70005E0711240C94A3070E94800770F3959FCD
:100F8000C1F3950F50E0551F629FF001729FBB2780
:100F9000F00DB11D639FAA27F00DB11DAA1F649F1C
:100FA0006627B00DA11D661F829F2227B00DA11DCF
:100FB000621F739FB00DA11D621F839FA00D611D55
:100FC000221F749F3327A00D611D231F849F600D76
:100FD000211D822F762F6A2F11249F5750409AF09F
:100FE000F1F088234AF0EE0FFF1FBB1F661F771F2B
:100FF000881F91505040A9F79E3F510580F00C94F6
:1010000058070C94A3075F3FE4F3983ED4F386950A
:1010100077956795B795F795E7959F5FC1F7FE2B95
:10102000880F911D9695879597F90895EE0FFF1FEC
:0C1030000590F491E02D0994F894FFCF96
:10103C00635AFFFF010005000100010001000101DE
:10104C0042000000000000FFFF0000000000000054
:10105C00000000BA011A0147010702780156016A23
:02106C00010081
:00000001FF
