:100000000C9462000C948A000C948A000C948A0070
:100010000C948A000C948A000C948A000C948A0038
:100020000C948A000C948A000C948A000C948A0028
:100030000C948A000C948A000C948A000C948A0018
:100040000C942D020C94CF020C949D020C94770218
:100050000C948A000C948A000C948A000C948A00F8
:100060000C948A000C948A000000000025002800EF
:100070002B0000000000240027002A0000000000E0
:1000800023002600290004040404040404040202DA
:100090000202020203030303030301020408102007
:1000A0004080010204081020010204081020000012
:1000B0000008000201000003040700000000000027
:1000C0000000EA0511241FBECFEFD8E0DEBFCDBF90
:1000D00011E0A0E0B1E0EAE8F0E102C005900D9285
:1000E000AC32B107D9F721E0ACE2B1E001C01D921A
:1000F000A13EB207E1F710E0C2E6D0E004C02197CC
:10010000FE010E943D08C136D107C9F70E943403A1
:100110000C9443080C940000833081F028F4813063
:1001200099F08230A9F008958730A9F08830C9F09D
:100130008430B1F4809180008F7D03C08091800075
:100140008F7780938000089584B58F7784BD08955C
:1001500084B58F7DFBCF8091B0008F778093B00006
:1001600008958091B0008F7DF9CFCF93DF93282F32
:1001700030E0F901E255FF4F8491F901E656FF4F57
:10018000D491F901EA57FF4FC491CC23A1F081111A
:100190000E948C00EC2FF0E0EE0FFF1FE458FF4FA1
:1001A000A591B491EC91ED2381E090E009F480E019
:1001B000DF91CF91089580E090E0FACFCF93DF9365
:1001C00090E0FC01E656FF4F24918A579F4FFC01B7
:1001D00084918823C9F090E0880F991FFC01EE58A4
:1001E000FF4FA591B491FC01E859FF4FC591D491FF
:1001F00061110DC09FB7F8948C91209582238C9348
:100200008881282328839FBFDF91CF910895623092
:1002100051F49FB7F8943C91822F809583238C935F
:10022000E8812E2BEFCF8FB7F894EC912E2B2C93E7
:100230008FBFEACFAF92BF92CF92DF92EF92FF9241
:100240000F931F93CF93DF936C017B018B01040FFE
:10025000151FEB015E01AE18BF08C017D10759F09A
:100260006991D601ED91FC910190F081E02DC601DC
:100270000995892B79F7C501DF91CF911F910F91D6
:10028000FF90EF90DF90CF90BF90AF900895FC016A
:10029000538D448D252F30E0842F90E0821B930BEB
:1002A000541710F0CF96089501970895FC01918D91
:1002B000828D981761F0A28DAE0FBF2FB11D5D9694
:1002C0008C91928D9F5F9F73928F90E008958FEF36
:1002D0009FEF0895FC01918D828D981731F0828DEA
:1002E000E80FF11D858D90E008958FEF9FEF089541
:1002F000FC01918D228D892F90E0805C9F4F821BA5
:1003000091098F73992708958CE291E00E947801FA
:1003100021E0892B09F420E0822F089580E090E00D
:10032000892B29F00E94840181110C94000008950A
:10033000FC01A48DA80FB92FB11DA35ABF4F2C915A
:10034000848D90E001968F739927848FA689B78951
:100350002C93A089B1898C91837080648C93938D48
:10036000848D981306C00288F389E02D80818F7DEB
:1003700080830895EF92FF920F931F93CF93DF93A3
:10038000EC0181E0888F9B8D8C8D98131AC0E889D1
:10039000F989808185FF15C09FB7F894EE89FF89A0
:1003A0006083E889F98980818370806480839FBF3E
:1003B00081E090E0DF91CF911F910F91FF90EF903E
:1003C0000895F62E0B8D10E00F5F1F4F0F7311274E
:1003D000E02E8C8D8E110CC00FB607FCFACFE88989
:1003E000F989808185FFF5CFCE010E949801F1CF78
:1003F000EB8DEC0FFD2FF11DE35AFF4FF0829FB7FD
:10040000F8940B8FEA89FB8980818062CFCFCF93EC
:10041000DF93EC01888D8823B9F0AA89BB89E8892C
:10042000F9898C9185FD03C0808186FD0DC00FB6D2
:1004300007FCF7CF8C9185FFF2CF808185FFEDCF50
:10044000CE010E949801E9CFDF91CF91089560918C
:10045000080190E080E00C941F061F920F920FB6E7
:100460000F9211242F933F938F939F93AF93BF933A
:100470008091DD019091DE01A091DF01B091E0015A
:100480003091DC0123E0230F2D3758F50196A11D93
:10049000B11D2093DC018093DD019093DE01A093D8
:1004A000DF01B093E0018091D8019091D901A09132
:1004B000DA01B091DB010196A11DB11D8093D80135
:1004C0009093D901A093DA01B093DB01BF91AF9172
:1004D0009F918F913F912F910F900FBE0F901F9082
:1004E000189526E8230F0296A11DB11DD2CF1F92A9
:1004F0000F920FB60F9211242F933F934F935F9358
:100500006F937F938F939F93AF93BF93EF93FF93DB
:100510008CE291E00E949801FF91EF91BF91AF9121
:100520009F918F917F916F915F914F913F912F910B
:100530000F900FBE0F901F9018951F920F920FB63D
:100540000F9211242F938F939F93EF93FF93E0913A
:100550003C01F0913D018081E0914201F091430125
:1005600082FD1BC09081809145018F5F8F73209128
:100570004601821741F0E0914501F0E0E45DFE4F55
:10058000958F80934501FF91EF919F918F912F91CE
:100590000F900FBE0F901F9018958081F4CF1F927F
:1005A0000F920FB60F9211242F933F934F938F9377
:1005B0009F93EF93FF933EB58091D701883008F069
:1005C00050C090E0FC01EE5EFE4F20813223FC0122
:1005D000E65FFE4F21E04081341320E030910901B5
:1005E000232320930901222309F438C080509F4F10
:1005F000FC0180818EBD579A0000000000000000C1
:1006000000000000000000000000000000000000EA
:1006100000000000000000000000000000000000DA
:1006200000000000000000000000000000000000CA
:10063000000000000000000057988091D7018F5FF4
:100640008093D701FF91EF919F918F914F913F91AF
:100650002F910F900FBE0F901F9018958FEF8EBDAA
:10066000ECCF8FEF8EBDEECFCF93DF9300D000D0D5
:1006700000D0CDB7DEB7789484B5826084BD84B5F0
:10068000816084BD85B5826085BD85B5816085BD8D
:1006900080916E00816080936E0010928100809145
:1006A00081008260809381008091810081608093CD
:1006B0008100809180008160809380008091B100F2
:1006C00084608093B1008091B00081608093B0001D
:1006D00080917A00846080937A0080917A008260B1
:1006E00080937A0080917A00816080937A00809173
:1006F0007A00806880937A001092C10060E087E001
:100700000E94DE00E5EBF0E08491E1EAF0E0249164
:100710002D83EDE8F0E0349139833323A1F081118A
:100720000E948C004981E42FF0E0EE0FFF1FE85992
:10073000FF4FA591B4918FB7F8949C91ED81E0950E
:10074000E923EC938FBF61E08CE00E94DE008CB562
:100750008C668CBD8CB580688CBD62E085E00E94A3
:10076000DE0062E084E00E94DE0062E083E00E943E
:10077000DE00E0913C01F0913D0182E08083E09158
:100780003C01F0913D011082E0913801F091390176
:100790001082E0913A01F0913B0180E18083109258
:1007A0004401E0914001F091410186E08083E091B5
:1007B0003E01F0913F01808180618083E0913E01A4
:1007C000F0913F01808188608083E0913E01F0914B
:1007D0003F01808180688083E0913E01F0913F017C
:1007E00080818F7D808390E080E00E94170691E0F9
:1007F000813009F090E09093080130E0832E30E0E2
:10080000932ECC24CA942FEB222EDD24D3941A9B52
:1008100045C18091D701882321F01092D701D09251
:10082000090185E00E94B5008C019093D601809368
:10083000D50184E00E94B5009A8389839093D40106
:100840008093D30183E00E94B5009093D2018093FE
:10085000D101012B09F044C089819A81892B09F0CB
:100860003FC08091CD019091CE01A091CF01B09178
:10087000D001892B8A2B8B2B99F42FB7F894809178
:10088000DD019091DE01A091DF01B091E0012FBF69
:100890008093CD019093CE01A093CF01B093D0016E
:1008A0002FB7F8948091DD019091DE01A091DF01D6
:1008B000B091E0012FBF4091CD015091CE016091E8
:1008C000CF017091D001841B950BA60BB70B813D16
:1008D0009740A105B10560F0D09208010E9427025F
:1008E0001092CD011092CE011092CF011092D00142
:1008F0008091D5019091D601892B09F046C0809155
:10090000D1019091D201892B09F03FC08091C9019A
:100910009091CA01A091CB01B091CC01892B8A2B77
:100920008B2B99F42FB7F8948091DD019091DE0123
:10093000A091DF01B091E0012FBF8093C901909396
:10094000CA01A093CB01B093CC012FB7F89480914A
:10095000DD019091DE01A091DF01B091E0012FBF98
:100960004091C9015091CA016091CB017091CC01B5
:10097000841B950BA60BB70B813D9740A105B105D4
:1009800060F0109208010E9427021092C901109293
:10099000CA011092CB011092CC018CE291E00E942E
:1009A000780106970CF47AC08CE291E00E9456011F
:1009B0008C018CE291E00E9456017C018CE291E076
:1009C0000E9456019E838D838CE291E00E94560125
:1009D0005C018CE291E00E9456018CE291E00E9461
:1009E00056010E3D110519F48F3D9105B1F01A82A3
:1009F000198249815A814F3D510509F44FC08CE25B
:100A000091E00E947801181619069CF78CE291E09B
:100A10000E9456019A838983ECCFC70103978A3FCE
:100A2000910538F48D819E8103978A3F910508F4E2
:100A300041C0D09204011092050185E08093060127
:100A400010920701C0920201C0920301C501887192
:100A50009927892B31F48091D1019091D201892B72
:100A600011F420920301C50186729927892B31F474
:100A70008091D3019091D401892B19F457EF5093B1
:100A80000201A0FC06C08091D5019091D601892B6E
:100A900029F4809103018F7D8093030181149104D7
:100AA00009F4B5CE0E948401882309F4ACCE0E94DB
:100AB0000000A9CEB701FF0C880B990B0E944407D8
:100AC00020E030E04FE753E40E949A0669837A837E
:100AD0008B839C832D813E81B901330F880B990B49
:100AE0000E94440720E030E04FE753E40E949A065A
:100AF0002B013C018091080199E1E92EF12C68EB72
:100B000071E008EF10E0882339F080E2E82EF12C44
:100B10006DEC71E007E211E06D547109072E000CD5
:100B2000880B990B0E94440729813A814B815C8193
:100B30000E94D00720E030E04AE952E40E942E06ED
:100B40000E940C07362E69837A83B8016E197F09DB
:100B5000072E000C880B990B0E944407A3019201F9
:100B60000E94D0072B013C01B701FF0C880B990BA9
:100B70000E9444079B01AC01C301B2010E942E06F2
:100B80000E940C07CB01232D49815A814F3F51050B
:100B900019F014F021E0230D2093040121E0498194
:100BA0005A814F3F510509F00CF420E020930501D4
:100BB000262F8F3F910519F014F021E0260F209386
:100BC000060121E08F3F910509F00CF420E020930D
:100BD000070138CFECE2F1E01382128288EE93E055
:100BE000A0E0B0E084839583A683B7838EE191E093
:100BF0009183808385EC90E09587848784EC90E0F6
:100C00009787868780EC90E0918B808B81EC90E0D9
:100C1000938B828B82EC90E0958B848B86EC90E0BA
:100C2000978B868B118E128E138E148E0895F999E0
:100C3000FECF92BD81BDF89A992780B50895262FE1
:100C4000F999FECF1FBA92BD81BD20BD0FB6F894B1
:100C5000FA9AF99A0FBE019608955058BB27AA2711
:100C60000E9445060C9496070E94880738F00E945F
:100C70008F0720F039F49F3F19F426F40C94850770
:100C80000EF4E095E7FB0C947F07E92F0E94A7077D
:100C900058F3BA17620773078407950720F079F4B1
:100CA000A6F50C94C9070EF4E0950B2EBA2FA02DD3
:100CB0000B01B90190010C01CA01A0011124FF2709
:100CC000591B99F0593F50F4503E68F11A16F04004
:100CD000A22F232F342F4427585FF3CF4695379503
:100CE0002795A795F0405395C9F77EF41F16BA0BC8
:100CF000620B730B840BBAF09150A1F0FF0FBB1F76
:100D0000661F771F881FC2F70EC0BA0F621F731FBE
:100D1000841F48F4879577956795B795F7959E3F1B
:100D200008F0B0CF9395880F08F09927EE0F9795AC
:100D3000879508950E94AE060C9496070E948F072F
:100D400058F00E94880740F029F45F3F29F00C9486
:100D50007F0751110C94CA070C9485070E94A707BE
:100D600068F39923B1F3552391F3951B550BBB27DA
:100D7000AA2762177307840738F09F5F5F4F220F1F
:100D8000331F441FAA1FA9F335D00E2E3AF0E0E816
:100D900032D091505040E695001CCAF72BD0FE2F60
:100DA00029D0660F771F881FBB1F261737074807F4
:100DB000AB07B0E809F0BB0B802DBF01FF279358AC
:100DC0005F4F3AF09E3F510578F00C947F070C94EA
:100DD000CA075F3FE4F3983ED4F38695779567950D
:100DE000B795F7959F5FC9F7880F911D96958795E1
:100DF00097F90895E1E0660F771F881FBB1F621700
:100E000073078407BA0720F0621B730B840BBA0BBD
:100E1000EE1F88F7E09508950E9413076894B111BA
:100E20000C94CA0708950E94AF0788F09F5798F066
:100E3000B92F9927B751B0F0E1F0660F771F881FDF
:100E4000991F1AF0BA95C9F714C0B13091F00E94F9
:100E5000C907B1E008950C94C907672F782F882738
:100E6000B85F39F0B93FCCF3869577956795B39520
:100E7000D9F73EF490958095709561957F4F8F4F8F
:100E80009F4F0895E89409C097FB3EF49095809594
:100E9000709561957F4F8F4F9F4F9923A9F0F92F40
:100EA00096E9BB279395F695879577956795B795BE
:100EB000F111F8CFFAF4BB0F11F460FF1BC06F5FA4
:100EC0007F4F8F4F9F4F16C0882311F096E911C0B6
:100ED000772321F09EE8872F762F05C0662371F0D7
:100EE00096E8862F70E060E02AF09A95660F771FEB
:100EF000881FDAF7880F9695879597F9089597F9DF
:100F00009F6780E870E060E008959FEF80EC0895AF
:100F100000240A94161617061806090608950024D8
:100F20000A9412161306140605060895092E039452
:100F3000000C11F4882352F0BB0F40F4BF2B11F4C6
:100F400060FF04C06F5F7F4F8F4F9F4F089557FD25
:100F50009058440F551F59F05F3F71F04795880F27
:100F600097FB991F61F09F3F79F0879508951216BE
:100F700013061406551FF2CF4695F1DF08C016166A
:100F800017061806991FF1CF86957105610508941B
:100F90000895E894BB2766277727CB0197F9089532
:100FA0000E94E3070C9496070E94880738F00E947D
:100FB0008F0720F0952311F00C947F070C94850780
:100FC00011240C94CA070E94A70770F3959FC1F3E0
:100FD000950F50E0551F629FF001729FBB27F00DE7
:100FE000B11D639FAA27F00DB11DAA1F649F66273C
:100FF000B00DA11D661F829F2227B00DA11D621F8B
:10100000739FB00DA11D621F839FA00D611D221F44
:10101000749F3327A00D611D231F849F600D211D28
:10102000822F762F6A2F11249F5750409AF0F1F0AB
:1010300088234AF0EE0FFF1FBB1F661F771F881F14
:1010400091505040A9F79E3F510580F00C947F07C6
:101050000C94CA075F3FE4F3983ED4F386957795E6
:101060006795B795F795E7959F5FC1F7FE2B880FBA
:10107000911D9695879597F90895EE0FFF1F05909E
:0A108000F491E02D0994F894FFCFDD
:10108A00635AFFFF01000500010101420000000050
:10109A000000FFFF00000000000000000000BA018D
:0C10AA001A0147010702780156016A0193
:00000001FF
