:100000000C9462000C948A000C948A000C94850570
:100010000C948A000C948A000C948A000C948A0038
:100020000C948A000C948A000C94AF040C948A00FF
:100030000C948A000C948A000C948A000C948A0018
:100040000C945A030C94FC030C94CA030C94A40360
:100050000C948A000C948A000C948A000C948A00F8
:100060000C948A000C948A000000000023002600F3
:10007000290000000000240027002A0000000000E2
:10008000250028002B0004040404040404040202D4
:100090000202020203030303030301020408102007
:1000A0004080010204081020010204081020000012
:1000B0000008000201000003040700000000000027
:1000C0000000060911241FBECFEFD8E0DEBFCDBF70
:1000D00011E0A0E0B1E0EAE4F6E102C005900D9283
:1000E000AA34B107D9F722E0AAE4B1E001C01D9219
:1000F000A031B207E1F710E0C2E6D0E004C02197DA
:10010000FE010E940E0BC136D107C9F70E94E4051B
:100110000C94230B0C940000833081F028F4813080
:1001200099F08230A9F008958730A9F08830C9F09D
:100130008430B1F4809180008F7D03C08091800075
:100140008F7780938000089584B58F7784BD08955C
:1001500084B58F7DFBCF8091B0008F778093B00006
:1001600008958091B0008F7DF9CFCF93DF93282F32
:1001700030E0F901E255FF4F8491F901E656FF4F57
:10018000D491F901EA57FF4FC491CC2391F081112A
:100190000E948C00EC2FF0E0EE0FFF1FE458FF4FA1
:1001A000A591B4918FB7F894EC91D095DE23DC93B0
:1001B0008FBFDF91CF910895CF93DF9390E0FC0143
:1001C000E656FF4F24918A579F4FFC018491882364
:1001D000C9F090E0880F991FFC01EE58FF4FA591E0
:1001E000B491FC01E458FF4FC591D49161110DC049
:1001F0009FB7F8948C91209582238C938881282333
:1002000028839FBFDF91CF910895623051F49FB74B
:10021000F8943C91822F809583238C93E8812E2B38
:10022000EFCF8FB7F894EC912E2B2C938FBFEACFA2
:10023000AF92BF92CF92DF92EF92FF920F931F93F4
:10024000CF93DF936C017B018B01040F151FEB0132
:100250005E01AE18BF08C017D10759F06991D601E9
:10026000ED91FC910190F081E02DC6010995892B5B
:1002700079F7C501DF91CF911F910F91FF90EF901A
:10028000DF90CF90BF90AF900895FC01538D448DC7
:10029000252F30E0842F90E0821B930B541710F031
:1002A000CF96089501970895FC01918D828D98173E
:1002B00061F0A28DAE0FBF2FB11D5D968C91928D16
:1002C0009F5F9F73928F90E008958FEF9FEF089547
:1002D000FC01918D828D981731F0828DE80FF11D10
:1002E000858D90E008958FEF9FEF0895FC01918D2B
:1002F000228D892F90E0805C9F4F821B91098F7324
:100300009927089587E691E00E94760121E0892BE4
:1003100009F420E0822F089580E090E0892B29F0F5
:100320000E94820181110C9400000895FC01A48DAB
:10033000A80FB92FB11DA35ABF4F2C91848D90E007
:1003400001968F739927848FA689B7892C93A089EA
:10035000B1898C91837080648C93938D848D981374
:1003600006C00288F389E02D80818F7D8083089507
:10037000EF92FF920F931F93CF93DF93EC0181E0F5
:10038000888F9B8D8C8D98131AC0E889F98980819C
:1003900085FF15C09FB7F894EE89FF896083E889CF
:1003A000F98980818370806480839FBF81E090E0C1
:1003B000DF91CF911F910F91FF90EF900895F62E4E
:1003C0000B8D10E00F5F1F4F0F731127E02E8C8DE8
:1003D0008E110CC00FB607FCFACFE889F98980812D
:1003E00085FFF5CFCE010E949601F1CFEB8DEC0F8A
:1003F000FD2FF11DE35AFF4FF0829FB7F8940B8F4A
:10040000EA89FB8980818062CFCFCF93DF93EC01B3
:10041000888D8823B9F0AA89BB89E889F9898C91EC
:1004200085FD03C0808186FD0DC00FB607FCF7CFA8
:100430008C9185FFF2CF808185FFEDCFCE010E94A8
:100440009601E9CFDF91CF91089580911F0190919E
:10045000200103978A3F910560F420911D0130919E
:100460001E012350310981E02A3F310518F480E054
:10047000089581E00895EF92FF921F93CF93DF9349
:100480008FEF809302018093030180916501909129
:100490006601D82FD1709C012672332711E0232BDF
:1004A00009F410E09C0144E0369527954A95E1F760
:1004B000C22FC1707C0128E0E222FF2483FF2AC002
:1004C0000E942502811126C080915601882371F176
:1004D00080915601813081F5D1E080912101909188
:1004E0002201892B69F1DD2319F08FE78093030145
:1004F000112329F0809103018F7B80930301CC238A
:1005000019F087EF80930201DF91CF911F91FF9047
:10051000EF9008951092560110925501EF28C1F204
:100520000E9425028823A1F2C82FD7CF81E08093B3
:10053000560180935501F4CF823079F611E0CCCF8B
:10054000DD23C1F28FE780930301D4CF0F931F9374
:10055000CF93823009F04CC0F89427E031E030931B
:10056000140120931301789400E411E020E030E0BE
:1005700000930B0110930C0120930D0130930E0199
:1005800000EF10E020E030E000930F011093100125
:10059000209311013093120106E116E023E030E0D0
:1005A00000930701109308012093090130930A0179
:1005B0000DE110E020E030E00093190110931A01E2
:1005C00020931B0130931C0103E110E020E030E098
:1005D0000093150110931601209317013093180111
:1005E0008093050161114AC0CF911F910F91089529
:1005F000F8948AE391E09093140180931301789426
:1006000080E491E0A0E0B0E080930B0190930C01B6
:10061000A0930D01B0930E0180E291E0A0E0B0E064
:1006200080930F0190931001A0931101B0931201D8
:1006300086E09FEFA2E0B0E080930701909308016D
:10064000A0930901B0930A018DE190E0A0E0B0E031
:100650008093190190931A01A0931B01B0931C0180
:100660008AE190E0A0E0B0E080931501909316013C
:10067000A0931701B093180181E0B2CFC09105019A
:1006800090E080E00E9433098B3429F06BE490E025
:1006900080E00E943B0981E090E00E9433098C17C2
:1006A00009F4A2CF6C2F81E090E0CF911F910F91C0
:1006B0000C943B091F920F920FB60F9211242F93A7
:1006C0003F938F939F93AF93BF9380910C02909130
:1006D0000D02A0910E02B0910F0230910B0223E0A7
:1006E000230F2D3758F50196A11DB11D20930B0244
:1006F00080930C0290930D02A0930E02B0930F0210
:100700008091070290910802A0910902B0910A021B
:100710000196A11DB11D8093070290930802A0933A
:100720000902B0930A02BF91AF919F918F913F91BF
:100730002F910F900FBE0F901F90189526E8230F52
:100740000296A11DB11DD2CF1F920F920FB60F922C
:1007500011242F933F934F935F936F937F938F93C6
:100760009F93AF93BF93EF93FF9387E691E00E942F
:100770009601FF91EF91BF91AF919F918F917F91E2
:100780006F915F914F913F912F910F900FBE0F90FE
:100790001F9018951F920F920FB60F9211242F934E
:1007A0008F939F93EF93FF93E0917701F0917801FE
:1007B0008081E0917D01F0917E0182FD1BC09081DE
:1007C000809180018F5F8F7320918101821741F0AA
:1007D000E0918001F0E0E959FE4F958F8093800110
:1007E000FF91EF919F918F912F910F900FBE0F90DE
:1007F0001F9018958081F4CF1F920F920FB60F9221
:1008000011242F933F934F938F939F93AF93BF9355
:10081000EF93FF938EB590910602953008F09CC03F
:10082000A0910602E091060230912301B0E0A75D9D
:10083000BE4F2C912823F0E0EC5DFE4F91E040810B
:10084000241390E093239093230190910602933018
:1008500051F4807F91E0803109F090E090930402A0
:1008600081E08093050280912301882309F471C0FF
:10087000E0910602F0E0E050FF4F80818EBD809154
:100880000602843008F052C00000000000000000A2
:100890000000000000000000000000000000000058
:1008A0000000000000000000000000000000000048
:1008B0000000000000000000000000000000000038
:1008C0000000000000000000000000000000000028
:1008D0000000000000000000000000000000000018
:1008E0000000000000000000579A00000000000017
:1008F00000000000000000000000000000000000F8
:1009000000000000000000000000000000000000E7
:1009100000000000000000000000000000000000D7
:1009200000000000000000000000579880910602BF
:100930008F5F80930602FF91EF91BF91AF919F91DE
:100940008F914F913F912F910F900FBE0F901F905D
:1009500018958FEF8EBDEACF8FEF8EBDECCF1F9233
:100960000F920FB60F9211242F933F934F935F93E3
:100970008F939F93809186009091870020914F01E3
:1009800030915001AC01421B530B9A014055510963
:100990004D38510508F051C09093500180934F019C
:1009A000409113015091140120914C0130914D015F
:1009B0002F5F3F4F30934D0120934C0120916301F5
:1009C000309164012F5F3F4F3093640120936301A6
:1009D00020916301309164012417350708F11092CA
:1009E00064011092630110926201109257012091EC
:1009F0005D01222389F120916001309161013093E2
:100A00005C0120935B0120915E0130915F01309386
:100A10005A012093590121E02093580110925D0161
:100A200020915801222369F02091590130915A01F7
:100A300037FF15C0240F351FFBCF2D3D310508F0C2
:100A4000ABCF9F918F915F914F913F912F910F90DD
:100A50000FBE0F901F90189510925801E1CF2417E8
:100A6000350718F0241B350BFACF40916201411174
:100A70000DC040916301509164014217530730F05B
:100A800021E02093620124E0209357012091570137
:100A90002223B9F220915B0130915C0130934B012C
:100AA00020934A0120914A0130914B01820F931FFC
:100AB0002091840030918500AC01421B530B141629
:100AC0001506BCF42091840030918500AC01421BD6
:100AD000530B14161506B4F3569A0296209184000F
:100AE00030918500AC01421B530B14161506B4F36C
:100AF00056988091570181508093570180915701FA
:100B000081119FCF109258019CCF1F920F920FB668
:100B10000F9211242F933F938F939F9381E0199B02
:100B20000CC080E080934E019F918F913F912F9157
:100B30000F900FBE0F901F90189590914E0191113C
:100B4000F1CF20914C0130914D01203F310558F0FB
:100B500020914C0130914D0130935301209352016B
:100B600091E09093540110926401109263011092ED
:100B70004D0110924C011092620110925701209188
:100B80008400309185003093500120934F01909163
:100B90005D019923B1F020916001309161013093A2
:100BA0005C0120935B0120915E0130915F013093E5
:100BB0005A012093590191E09093580110925D01E0
:100BC000B1CF10925801AECFCF93DF9300D000D0B9
:100BD00000D0CDB7DEB7789484B5826084BD84B58B
:100BE000816084BD85B5826085BD85B5816085BD28
:100BF00080916E00816080936E00109281008091E0
:100C00008100826080938100809181008160809367
:100C10008100809180008160809380008091B1008C
:100C200084608093B1008091B00081608093B000B7
:100C300080917A00846080937A0080917A0082604B
:100C400080937A0080917A00816080937A0080910D
:100C50007A00806880937A001092C10090E080E072
:100C60000E9433098B3409F42AC181E060E00E94BC
:100C7000A60260E087E00E94DC0087E00E94B500E9
:100C8000579860E086E00E94DC0086E00E94B50094
:100C9000569861E08CE00E94DC008CB58C668CBDBF
:100CA0008CB580688CBD62E084E00E94DC0060E06E
:100CB00088E00E94DC0060E089E00E94DC00109285
:100CC000800082E880938100109285001092840059
:100CD0001092500110924F0183B18695817091E07E
:100CE000892780934E01809168008160809368001D
:100CF00080916B00826080936B00D89AB59A809146
:100D00006F00806280936F00E0917701F09178012D
:100D100082E08083E0917701F09178011082E09188
:100D20007301F09174011082E0917501F0917601E8
:100D300080E1808310927F01E0917B01F0917C0142
:100D400086E08083E0917901F0917A018081806171
:100D50008083E0917901F0917A01808188608083BD
:100D6000E0917901F0917A01808180688083E0913F
:100D70007901F0917A0180818F7D80830E943B020E
:100D800020E0222E20E0322E87E691E00E947601BC
:100D900018161906F4F487E691E00E9468018E3D6A
:100DA0009105B9F087E691E00E94540189349105DC
:100DB00081F446E050E060E471E087E691E00E9453
:100DC000180142E050E067E471E087E691E00E949C
:100DD0001801F8948091540181117BC078941A9B7A
:100DE000E8C180910602882329F01092060281E072
:100DF00080932301E2EBF0E08491EEE9F0E0F491DE
:100E0000FD83EAE8F0E0F491F983FF2309F48FC051
:100E100081110E948C00E980EE2DF0E0EE0FFF1FA3
:100E2000E859FF4FA591B4918C91FD80F82291E093
:100E300080E009F490E0909321018093220187E6FD
:100E400091E00E94760106970CF48BC087E691E052
:100E50000E9454013C0187E691E00E9454014C013C
:100E600087E691E00E9454019A83898387E691E0A6
:100E70000E945401582E492E87E691E00E945401A9
:100E800087E691E00E9454010EED6016710409F4AA
:100E900051C01A82198209811A810F3D110509F486
:100EA00060C087E691E00E947601181619069CF74B
:100EB00087E691E00E9454019A838983ECCF81E018
:100EC00090E00E9433099FEF980F923008F0CDCE4A
:100ED000CDCE80915201909153011092540178949B
:100EE000803F910508F47BCF82329140D0F081E0C1
:100EF00090910601981317C0909151019F3F19F0EE
:100F00009F5F9093510190915101923008F467CF07
:100F100090910501891709F462CF61E00E94A60251
:100F20005ECF82E0E5CF8093060191E0EACF90E0CA
:100F300080E081CF8F3D910509F0ABCF90922001E9
:100F400080921F01E980FA80F0921E01E0921D015B
:100F50005092650140926601652D87E691E00E94FE
:100F6000B8010E943B02F8949091050280E0992319
:100F700021F080910402109205027894992309F4DB
:100F800018C1882309F431C10E94250281112DC1A5
:100F900020911F0130912001032E000C440B550BB2
:100FA0002F3F31054105510529F024F02FEF30E0A6
:100FB00040E050E080911D0190911E017C01990F4D
:100FC000000B110BE982FA820B831C83D801C70145
:100FD0008F3F9105A105B10549F044F0E12CF12CBA
:100FE0008701EA94E982FA820B831C8357FF03C0CE
:100FF00020E030E0A901A8EEB3E00E949A092FEFAB
:1010000030E040E050E00E947B09CA01B901209124
:101010000B0130910C0140910D0150910E010E9485
:10102000FD09A0E4AA2EB2E4BB2E1FE0C12ED12CF4
:10103000E12CF12C00E010E00E94A50929013A0101
:101040004B018E839D83609107017091080180910F
:10105000090190910A0128EE33E040E050E00E943F
:10106000FD0959016A017B018C019201A301B401C0
:101070008E819D810E94390A60E874E88EE190E0DB
:101080000E9449097A598D4F9E4F20E03CEC44E084
:1010900052E00E94590929013A0129813A814B8184
:1010A0005C8157FF03C020E030E0A901A8EEB3E067
:1010B0000E949A092FEF30E040E050E00E947B0947
:1010C000CA01B90120910F01309110014091110125
:1010D000509112010E94FD09E8EEAE2EF3E0BF2E02
:1010E000C12CD12CE12CF12C00E010E00E94390A37
:1010F00049012091150130911601280D391D80916B
:10110000190190911A01A0911B01B0911C01840D4D
:10111000951DA61DB71D8F379105A105B10524F0BA
:101120008EE790E0A0E0B0E02C013D0102E0401627
:101130005104610471042CF482E0482E512C612C7E
:10114000712CF89460911301709114014091630126
:1011500050916401C90197FF03C0860F971FFBCF11
:10116000861797071CF0861B970BFACFE091620158
:10117000B201E11105C04F5F5F4F4817590728F1D1
:10118000709361016093600130935F0120935E0171
:1011900081E080935D01789480915601813039F42B
:1011A00080915501823060F18150809355010E94F9
:1011B0003B022114310409F4E7CD0E948201882307
:1011C00009F4DECD0E940000DBCD50925C0140921C
:1011D0005B0190935A018093590181E080935801FB
:1011E00010925D0110925701D6CFF89410925D01D4
:1011F0001092580110925701109262015698CBCF6D
:101200001092550112E010935601D1CFE7E6F1E0BC
:101210001382128288EE93E0A0E0B0E0848395838D
:10122000A683B78382E391E09183808385EC90E08D
:101230009587848784EC90E09787868780EC90E0A0
:10124000918B808B81EC90E0938B828B82EC90E091
:10125000958B848B86EC90E0978B868B118E128E0B
:10126000138E148E0895F999FECF92BD81BDF89A20
:10127000992780B50895262FF999FECF1FBA92BD00
:1012800081BD20BD0FB6F894FA9AF99A0FBE019667
:101290000895DB018F939F930E949A09BF91AF91AC
:1012A000A29F800D911DA39F900DB29F900D1124C0
:1012B0000895A1E21A2EAA1BBB1BFD010DC0AA1F97
:1012C000BB1FEE1FFF1FA217B307E407F50720F0AF
:1012D000A21BB30BE40BF50B661F771F881F991F2A
:1012E0001A9469F760957095809590959B01AC0173
:1012F000BD01CF010895052E97FB1EF400940E94B6
:10130000920957FD07D00E94590907FC03D04EF4FB
:101310000C94920950954095309521953F4F4F4F31
:101320005F4F089590958095709561957F4F8F4F91
:101330009F4F08950E94140BA59F900DB49F900D90
:10134000A49F800D911D11240895DF93CF931F93C7
:101350000F939A9DF02D219FF00D8B9DF00D8A9D8E
:10136000E02DF10D039FF00D029FE00DF11D4E9D4C
:10137000E00DF11D5E9DF00D4F9DF00D7F936F937D
:10138000BF92AF925F934F93D5010E94140B8B01D4
:10139000AC01D7010E94140BEB01E80FF91FD60135
:1013A0000E94F4092F913F91D6010E94140BC60FA1
:1013B000D71FE81FF91FAF91BF910E94F4092F9129
:1013C0003F910E94140BC60FD71FE81FF91FD601CB
:1013D0000E94140BE60FF71F9801BE01CF010F9179
:1013E0001F91CF91DF9108950E94140B460F571F54
:1013F000C81FD91F08F43196089597FB57FF0C9426
:101400000D0A9F938F930E940D0A6E1B7F0BAF9165
:10141000BF918A0B9B0B0895E894DF93CF93FC0157
:10142000DB010E94140B7F936F93E9019A01AC01D9
:10143000BF93AF933F932F93DF010E94140B26F4C9
:101440006C1B7D0B820B930B9E01EB01FC010E9438
:10145000F409AF91BF912F913F910E94F409BE0111
:10146000CF01F9012F913F91CF91DF9108956894B9
:1014700001C0E894F92FF12B12F00C946B0AA0E054
:10148000B0E0E5E4FAE00C94DD0A092E059422F4BC
:101490000E94C70A112392F4F0E80F26FFEFE094B0
:1014A000F09400951095B094C094D094A194BF0A84
:1014B000CF0ADF0AEF0AFF0A0F0B1F0B0E94760A02
:1014C00007FC0E94C70ACDB7DEB7ECE00C94F90A1E
:1014D000689401C0E8948F929F92CF93DF930E940B
:1014E000760ADF91CF919F908F9008958824992458
:1014F000F401E401B0E49F93AA279A158B049C049D
:10150000ED05FE05CF05D007A10798F4AD2FDC2F20
:10151000CF2FFE2FE92D982C892E982F872F762FED
:10152000652F542F432F322F2227B85031F7BF9108
:1015300027C01B2EBF91BB27220F331F441F551FEF
:10154000661F771F881F991F881C991CEE1FFF1F9D
:10155000CC1FDD1FAA1FBB1F8A149B04EC05FD05D1
:10156000CE05DF05A007B10748F08A189B08EC09F3
:10157000FD09CE09DF09A00BB10B21601A94E1F639
:101580002EF49401AF01BE01CD01000C08956095C9
:1015900070958095909530954095509521953F4F49
:1015A0004F4F5F4F6F4F7F4F8F4F9F4F08952F9239
:1015B0003F924F925F926F927F928F929F92AF92E3
:1015C000BF92CF92DF92EF92FF920F931F93CF9330
:1015D000DF93CDB7DEB7CA1BDB0B0FB6F894DEBFC7
:1015E0000FBECDBF09942A88398848885F846E84ED
:1015F0007D848C849B84AA84B984C884DF80EE8037
:10160000FD800C811B81AA81B981CE0FD11D0FB63F
:10161000F894DEBF0FBECDBFED010895EE0FFF1FA2
:101620000590F491E02D0994A29FB001B39FC001F1
:10163000A39F700D811D1124911DB29F700D811DFE
:0A1640001124911D0895F894FFCFC6
:10164A00315AFFFFFF01FF06FF02004001000020A0
:10165A000100003A011A0000001D0000007F007F0F
:10166A00000100010142000000FFFFFF0FFF000020
:10167A000000B8011801450105027601540168010C
:0A168A004B4F4E414D49000D0A0080
:00000001FF
