:100000000C945D000C9485000C9485000C947E0388
:100010000C9485000C9485000C9485000C9485004C
:100020000C9485000C9485000C9485000C9485003C
:100030000C9485000C9485000C9485000C9485002C
:100040000C946C020C940E030C94DC020C94B6021B
:100050000C9485000C9485000C9485000C9485000C
:100060000C9485000C94850000000008000201003B
:100070000003040700000000000000000000000072
:10008000250028002B0000000000240027002A0083
:10009000040404040404040402020202020203032E
:1000A0000303030301020408102040800102040836
:1000B0001020010204081020090811241FBECFEFF0
:1000C000D8E0DEBFCDBF11E0A0E0B1E0E8E4F1E1AF
:1000D00002C005900D92AE33B107D9F721E0AEE32F
:1000E000B1E001C01D92AD3FB207E1F710E0CDE5F0
:1000F000D0E004C02197FE010E946B08CC35D107E7
:10010000C9F70E9409040C94A2080C940000CF9334
:10011000DF9390E0FC01EC55FF4F249180579F4FF7
:10012000FC0184918823D1F090E0880F991FFC0195
:10013000EA57FF4FA591B491FC01E458FF4FC591D8
:10014000D49161110EC09FB7F8948C91E22FE09585
:100150008E238C932881E223E8839FBFDF91CF9188
:1001600008958FB7F894EC91E22BEC938FBFF6CF04
:100170002FB7F8946091F9017091FA018091FB0119
:100180009091FC012FBF0895AF92BF92CF92DF9262
:10019000EF92FF920F931F93CF93DF936C017B013C
:1001A0008B01040F151FEB015E01AE18BF08C017CD
:1001B000D10759F06991D601ED91FC910190F08140
:1001C000E02DC6010995892B79F7C501DF91CF9103
:1001D0001F910F91FF90EF90DF90CF90BF90AF9065
:1001E0000895FC01538D448D252F30E0842F90E03D
:1001F000821B930B541710F0CF9608950197089522
:10020000FC01918D828D981761F0A28DAE0FBF2FEA
:10021000B11D5D968C91928D9F5F9F73928F90E040
:1002200008958FEF9FEF0895FC01918D828D9817AF
:1002300031F0828DE80FF11D858D90E008958FEFEC
:100240009FEF0895FC01918D228D892F90E0805CB5
:100250009F4F821B91098F739927089586E591E03E
:100260000E94220121E0892B09F420E0822F0895C9
:1002700080E090E0892B29F00E942E0181110C94DE
:1002800000000895FC01A48DA80FB92FB11DA35A39
:10029000BF4F2C91848D90E001968F739927848FA6
:1002A000A689B7892C93A089B1898C9183708064C9
:1002B0008C93938D848D981306C00288F389E02D6A
:1002C00080818F7D80830895EF92FF920F931F931B
:1002D000CF93DF93EC0181E0888F9B8D8C8D9813F9
:1002E0001AC0E889F989808185FF15C09FB7F89405
:1002F000EE89FF896083E889F98980818370806451
:1003000080839FBF81E090E0DF91CF911F910F919B
:10031000FF90EF900895F62E0B8D10E00F5F1F4FAA
:100320000F731127E02E8C8D8E110CC00FB607FCB9
:10033000FACFE889F989808185FFF5CFCE010E9447
:100340004201F1CFEB8DEC0FFD2FF11DE35AFF4F72
:10035000F0829FB7F8940B8FEA89FB8980818062D5
:10036000CFCFCF93DF93EC01888D8823B9F0AA8992
:10037000BB89E889F9898C9185FD03C0808186FD60
:100380000DC00FB607FCF7CF8C9185FFF2CF8081AF
:1003900085FFEDCFCE010E944201E9CFDF91CF91E1
:1003A000089510924A01109249011092480110924A
:1003B0004C0110924B010895CF92DF92EF92FF9281
:1003C0000F931F93F22FE32F082F10E030E020E06F
:1003D0006B01072E000CEE08FF0886171706DCF5E8
:1003E000FA014430510514F4E4E0F0E0C01AD10AF7
:1003F000E20AF30A26E0CC0CDD1CEE1CFF1C2A9559
:10040000D1F7AF0155954795052E000C660B770B7C
:10041000CB01BA016C0D7D1D8E1D9F1D9F01FF0F2D
:10042000440B550B0E944C0880E890E0A0E0B0E03F
:10043000821B930BA40BB50BB7FD3DC08F3F9105FD
:10044000A105B10509F0CCF51F910F91FF90EF9038
:10045000DF90CF9008954F2F5E2F4430510514F454
:1004600044E050E0D901C8018C199D09AE09BF09CB
:100470006C017D0186E0CC0CDD1CEE1CFF1C8A9516
:10048000D1F78A0115950795012E000C220B330B2D
:10049000C701B601600F711F821F931F9A01550F8C
:1004A000440B550B0E944C08DA01C90180589F4F3C
:1004B000AF4FBF4FC1CF80E0C7CF8FEFC5CF5798A9
:1004C00008958AE38A95F1F700C05F98579A80E112
:1004D0008A95F1F70C945F021F920F920FB60F925C
:1004E00011242F933F938F939F93AF93BF9380914A
:1004F000F9019091FA01A091FB01B091FC013091BA
:10050000F80123E0230F2D3758F50196A11DB11DE9
:100510002093F8018093F9019093FA01A093FB01D5
:10052000B093FC018091F4019091F501A091F60146
:10053000B091F7010196A11DB11D8093F401909334
:10054000F501A093F601B093F701BF91AF919F9190
:100550008F913F912F910F900FBE0F901F90189584
:1005600026E8230F0296A11DB11DD2CF1F920F9234
:100570000FB60F9211242F933F934F935F936F9376
:100580007F938F939F93AF93BF93EF93FF9386E5F2
:1005900091E00E944201FF91EF91BF91AF919F9135
:1005A0008F917F916F915F914F913F912F910F901C
:1005B0000FBE0F901F9018951F920F920FB60F92BB
:1005C00011242F938F939F93EF93FF93E0916601F4
:1005D000F09167018081E0916C01F0916D0182FDE5
:1005E0001BC0908180916F018F5F8F73209170018C
:1005F000821741F0E0916F01F0E0EA5AFE4F958FCB
:1006000080936F01FF91EF919F918F912F910F90A8
:100610000FBE0F901F9018958081F4CF1F920F92FC
:100620000FB60F9211242F933F934F935F936F93C5
:100630007F938F939F93AF93BF93EF93FF938EB569
:1006400090913F01992399F01A9911C0E0913E01D0
:10065000E830A0F4F0E0E15DFC4F0C946B083C0343
:100660005A03600365036A036F03740379038FEF12
:100670008EBD0E945F020DC0813029F08FEF8EBDCC
:1006800010923F01F6CF93E59EBD80933E010E94FC
:100690006102FF91EF91BF91AF919F918F917F91F7
:1006A0006F915F914F913F912F910F900FBE0F90DF
:1006B0001F901895823411F78AE58EBD82E0E5CF50
:1006C000809105018EBD83E0E0CF809104018EBD55
:1006D00084E0DBCF809103018EBD85E0D6CF809191
:1006E00002018EBD86E0D1CF809101018EBD87E0F1
:1006F000CCCF809100018EBD88E0C7CF1F920F92B2
:100700000FB60F9211242F933F934F935F936F93E4
:100710007F938F939F93AF93BF93EF93FF931A9918
:1007200073C081E080933F0110923E015091190106
:100730004091180120914F0130914E0180914A0162
:10074000811148C090E080E021FF0CC080E190E082
:1007500030FD02C090E080E031FD806432FD8068B1
:1007600033FD806220FD906822FD906423FD90623D
:1007700025FD8860809590958093050190930401F4
:1007800080E88093030180930201809301018093AC
:10079000000190914A01913001F58093030180930B
:1007A000020180930101809300018FEF8EBD0E94B2
:1007B0005F02FF91EF91BF91AF919F918F917F91D8
:1007C0006F915F914F913F912F910F900FBE0F90BE
:1007D0001F90189590E080E0CDCF80914A01823043
:1007E00011F480E4DACF80914A01833011F480EC77
:1007F000D4CF21FDDACF50930301409302015093EF
:10080000010140930001D1CF10923F0110923E01AF
:10081000CCCFCF93DF93CDB7DEB76C970FB6F894FC
:10082000DEBF0FBECDBF789484B5826084BD84B531
:10083000816084BD85B5826085BD85B5816085BDDB
:1008400080916E00816080936E0010928100809193
:10085000810082608093810080918100816080931B
:100860008100809180008160809380008091B10040
:1008700084608093B1008091B00081608093B0006B
:1008800080917A00846080937A0080917A008260FF
:1008900080937A0080917A00816080937A008091C1
:1008A0007A00806880937A001092C10060E08AE04C
:1008B0000E94870060E08BE00E94870060E08DE08E
:1008C0000E94870061E08CE00E948700E4E7F0E08E
:1008D0008491E0EBF0E09491ECE9F0E0E491EE2318
:1008E000D1F0882359F0833009F46DC108F060C15C
:1008F000813009F46EC1823009F46FC1F0E0EE0F6F
:10090000FF1FE458FF4FA591B4918FB7F894EC9175
:100910009E2B9C938FBF5F9860E087E00E948700CA
:100920000E945F02E0916601F091670182E080839E
:10093000E0916601F09167011082E0916201F0910F
:1009400063011082E0916401F091650180E1808390
:1009500010926E01E0916A01F0916B0186E0808354
:10096000E0916801F0916901808180618083E0916C
:100970006801F0916901808188608083E09168015D
:10098000F0916901808180688083E0916801F09135
:10099000690180818F7D80839E012F5F3F4F7901A8
:1009A0005901D12CC12CC6010E943608D5018D9366
:1009B0005D01BFEFCB1ADB0AE5E1CE16D10499F752
:1009C00097012D5E3F4F87E593E1582F5695569539
:1009D0005695492F4295440F407E152F142B96951E
:1009E000969596958295880F807E092F082BD701C2
:1009F0008D917D01F801E827CF01C1962A173B07A9
:100A000021F7EC88FD888A889B88A888B9884E845D
:100A10005F844C855D856A857B85E885F985AE8137
:100A2000BF810C811D817B80C980DA8027E4C216DA
:100A300020E5D20609F0DEC031E07312DBC0E81613
:100A4000F90609F0D7C00F3F110511F008F0D2C028
:100A5000AF3FB10511F008F0CDC0CF0104978C3F36
:100A6000910508F0C7C0CB0104978C3F910508F0B1
:100A7000C1C0CA0104978C3F910508F0BBC0C201F8
:100A800004978C3F910508F0B5C08FE7A80EB11C04
:100A90009FEFA916B10408F0ADC02FE7820E911C9C
:100AA0003FEF8316910408F0A5C010931301009343
:100AB0001201B0930D01A0930C01F0931501E09386
:100AC0001401709317016093160150930F01409326
:100AD0000E01509211014092100181E080934D016E
:100AE0008CEE8CBD8FEF8EBD80916800816080930D
:100AF000680080916B00846080936B007894412C37
:100B0000512C32014A94AE01415F5F4F5F8B4E8B97
:100B1000CE014496998F888F86E591E00E9422014C
:100B2000181619061CF58091F30181111FC086E586
:100B300091E00E9414018E3D9105C1F08934910528
:100B400009F05BC086E591E00E9400014BE050E0B7
:100B50006EE271E086E591E00E94C40042E050E060
:100B60006AE371E086E591E00E94C40011E082E052
:100B7000982E86E591E00E942201181619060CF0C5
:100B8000D0C00091F301002309F4C3C086E591E0D1
:100B90000E940001023009F404C1A0F5002309F409
:100BA000FDC0013031F780931B019092F301E1CF3A
:100BB0008730B1F08830D1F0843009F09FCE809139
:100BC00080008F7D03C0809180008F7780938000AC
:100BD00095CE84B58F7784BD91CE84B58F7DFBCFC4
:100BE0008091B0008F778093B00088CE8091B00064
:100BF0008F7DF9CF10924D0173CF86E591E00E9471
:100C00000001B4CF043009F4D8C008F4D0C00530D6
:100C100009F0AFCF8F3D09F0F7C1E09055018E2D5F
:100C2000807C09F074C080905401882D807F09F089
:100C30006EC000911A01F0901B01332433948E2D65
:100C40008071C0904C01C126E4FC02C0312CC12C43
:100C5000EE2DE170EC8FD0904B01D126E0FED12C2F
:100C600090914A019111D6C0882309F4A6C18091C0
:100C700049018111A8C010934901109248010E94B6
:100C8000B8006093440170934501809346019093AE
:100C9000470130924C01DC8CD0924B0180914D0188
:100CA000882309F48FC120911601309117014091DA
:100CB00014015091150160911201709113018F2D53
:100CC0000E94DC01F82E2091100130911101409119
:100CD0000E0150910F0160910C0170910D01802F58
:100CE0000E94DC019FB7F894F092190180931801DB
:100CF000E0924F0180924E019FBF0E94B800609326
:100D0000500170935101809352019093530190E0F0
:100D10004BC086E591E00E9414018E3D910509F4D7
:100D200035CFC0905001D0905101E0905201F09029
:100D30005301C114D104E104F10419F10E94B80077
:100D40006C197D098E099F09673971058105910527
:100D5000C0F09FB7F89480E8809319018093180140
:100D600010924F0110924E019FBF1092F30110920A
:100D700050011092510110925201109253010E94A1
:100D8000D10180E090E0892B09F4C6CE0E942E01AB
:100D9000882309F4C1CE0E940000BECE1093F30157
:100DA000E8CE80931A0193E09093F301E2CE809312
:100DB0005501A4E0A093F301DCCE80935401B5E08B
:100DC000B093F301D6CE80914801811162CF0E9489
:100DD000B800209144013091450140914601509165
:100DE0004701621B730B840B950B683873418105B7
:100DF000910508F44ECF1093480110934A010E94C8
:100E0000B800609340017093410180934201909338
:100E100043013FCF0E94B800209140013091410131
:100E20004091420150914301621B730B840B950B5F
:100E3000613375478105910518F00E94D10129CFD2
:100E4000C110FBCFDD2009F424CF80914A0181300D
:100E500039F4F0920B0100930A0190924A01CFCF2E
:100E600080914A01823041F4F09209010093080117
:100E700033E030934A01C3CF80914A01833009F0B7
:100E800008CFF09207010093060120910B0130E09A
:100E9000809109015901A81AB10880910A0190E0D6
:100EA00040910801FC01E41BF10944E0A416B104DF
:100EB0000CF481C0E430F1050CF47DC06F2D70E0BE
:100EC000621B730B643071050CF475C0402F50E049
:100ED000481B590B443051050CF46DC0309313017D
:100EE0002093120190930D0180930C01B092150193
:100EF000A0921401F0930F01E0930E01709317017B
:100F000060931601509311014093100110934D010D
:100F1000AE89BF890F2EF7E0DF2EF02D1D92DA94F7
:100F2000E9F7A7E4B0E5BA83A9831B833D832C834B
:100F30009F838E83B986A8867B876A87FD87EC8727
:100F40005F874E87FE0131965F0187E593E1382F79
:100F5000369536953695292F2295220F207E322BF5
:100F60003B8F9695969596958295880F807E982BC7
:100F70009A8F81912A8D3B8D2827C901C196488D72
:100F8000598DE417F50719F79D8B8C8BD12CC12C4B
:100F9000D5012D905D01C6010E943608281621F06A
:100FA000622DC6010E943E08BFEFCB1ADB0AE5E1C5
:100FB000CE16D10469F710924A011092490110929D
:100FC000480167CE2F2D30E0A7EDB0E00E947108F8
:100FD00061587F4F8F4F9F4FA30192010E944C0891
:100FE00082E1F82EF20E202F30E0A1EDB0E00E9459
:100FF000710861587F4F8F4F9F4FA30192010E944C
:101000004C088BE0820F6ECE91E08E3D09F07FCED2
:10101000CBCEE6E5F1E01382128288EE93E0A0E009
:10102000B0E084839583A683B78380E291E09183C7
:10103000808385EC90E09587848784EC90E09787A7
:10104000868780EC90E0918B808B81EC90E0938B95
:10105000828B82EC90E0958B848B86EC90E0978B72
:10106000868B118E128E138E148E0895F999FECFF1
:1010700092BD81BDF89A992780B50895262FF999D8
:10108000FECF1FBA92BD81BD20BD0FB6F894FA9A6B
:10109000F99A0FBE01960895052E97FB1EF4009451
:1010A0000E94630857FD07D00E94800807FC03D008
:1010B0004EF40C94630850954095309521953F4F20
:1010C0004F4F5F4F089590958095709561957F4F34
:1010D0008F4F9F4F0895EE0FFF1F0590F491E02D65
:1010E0000994A29FB001B39FC001A39F700D811D01
:1010F0001124911DB29F700D811D1124911D089521
:10110000A1E21A2EAA1BBB1BFD010DC0AA1FBB1F0B
:10111000EE1FFF1FA217B307E407F50720F0A21B7D
:10112000B30BE40BF50B661F771F881F991F1A94EA
:1011300069F760957095809590959B01AC01BD0114
:08114000CF010895F894FFCFE0
:1011480080808080FFFFC0C04040808080004000D9
:101158004000800040004000808080800000000047
:101168006401C400F100B101220100011401534FD0
:0E1178004E592D414E414C4F47000D0A0000CC
:00000001FF
