:100000000C945C000C9479000C9479000C9414020C
:100010000C9479000C9479000C9479000C9479007C
:100020000C9479000C9479000C9479000C9479006C
:100030000C9479000C9479000C9479000C9479005C
:100040000C945A010C94A4010C9479000C9479003E
:100050000C9479000C9479000C9479000C9479003C
:100060000C9479000C947900000000002400270013
:100070002A0000000000250028002B0004040404CE
:100080000404040402020202020203030303030342
:10009000010204081020408001020408102001021F
:1000A00004081020000000080002010000030407FB
:1000B000000000000000000011241FBECFEFD8E0B8
:1000C000DEBFCDBF11E0A0E0B1E0EEE8FDE002C090
:1000D00005900D92A832B107D9F721E0A8E2B1E06E
:1000E00001C01D92AA34B207E1F70E949F020C944E
:1000F000C5060C940000CF93DF9390E0FC01E0571D
:10010000FF4F249184589F4FFC0184918823D1F0A4
:1001100090E0880F991FFC01E859FF4FA591B49119
:10012000FC01EE58FF4FC591D49161110EC09FB7ED
:10013000F8948C91E22FE0958E238C932881E22312
:10014000E8839FBFDF91CF9108958FB7F894EC912A
:10015000E22BEC938FBFF6CF2FB7F89460912F016D
:100160007091300180913101909132012FBF08953B
:1001700010923D0110923C0110923B0110923F0100
:1001800010923E010895CF92DF92EF92FF920F936B
:100190001F93F22FE32F082F10E030E020E06B01D7
:1001A000072E000CEE08FF0886171706DCF5FA018B
:1001B0004430510514F4E4E0F0E0C01AD10AE20A38
:1001C000F30A26E0CC0CDD1CEE1CFF1C2A95D1F7AF
:1001D000AF0155954795052E000C660B770BCB01AB
:1001E000BA016C0D7D1D8E1D9F1D9F01FF0F440BDD
:1001F000550B0E946F0680E890E0A0E0B0E0821B03
:10020000930BA40BB50BB7FD3DC08F3F9105A10526
:10021000B10509F0CCF51F910F91FF90EF90DF90A1
:10022000CF9008954F2F5E2F4430510514F444E0D1
:1002300050E0D901C8018C199D09AE09BF096C01B4
:100240007D0186E0CC0CDD1CEE1CFF1C8A95D1F7ED
:100250008A0115950795012E000C220B330BC7015F
:10026000B601600F711F821F931F9A01550F440B37
:10027000550B0E946F06DA01C90180589F4FAF4F9E
:10028000BF4FC1CF80E0C7CF8FEFC5CF9091C000E7
:1002900095FFFCCF8093C6000895579808958AE390
:1002A0008A95F1F700C05F98579A80E18A95F1F737
:1002B0000C944D011F920F920FB60F9211242F93A1
:1002C0003F938F939F93AF93BF9380912F01909112
:1002D0003001A0913101B091320130912E0123E023
:1002E000230F2D3758F50196A11DB11D20932E0126
:1002F00080932F0190933001A0933101B09332018C
:1003000080912A0190912B01A0912C01B0912D0197
:100310000196A11DB11D80932A0190932B01A093FA
:100320002C01B0932D01BF91AF919F918F913F917F
:100330002F910F900FBE0F901F90189526E8230F56
:100340000296A11DB11DD2CF1F920F920FB60F9230
:1003500011242F933F934F935F936F937F938F93CA
:100360009F93AF93BF93EF93FF938EB59091290125
:10037000992399F01A9911C0E0912801E830A0F46E
:10038000F0E0EB53FE4F0C948E06D201F001F60123
:10039000FB01000205020A020F028FEF8EBD0E94D0
:1003A0004D010DC0813029F08FEF8EBD10922901D3
:1003B000F6CF93E59EBD809328010E944F01FF91E7
:1003C000EF91BF91AF919F918F917F916F915F91CD
:1003D0004F913F912F910F900FBE0F901F90189546
:1003E000823411F78AE58EBD82E0E5CF8091050168
:1003F0008EBD83E0E0CF809104018EBD84E0DBCF31
:10040000809103018EBD85E0D6CF809102018EBD23
:1004100086E0D1CF809101018EBD87E0CCCF809165
:1004200000018EBD88E0C7CF1F920F920FB60F92CA
:1004300011242F933F934F935F936F937F938F93E9
:100440009F93AF93BF93EF93FF931A9973C081E08B
:1004500080932901109228015091190140911801AF
:10046000209142013091410180913D01811148C0AC
:1004700090E080E021FF0CC080E190E030FD02C000
:1004800090E080E031FD806432FD806833FD806261
:1004900020FD906822FD906423FD906225FD886018
:1004A00080959095809305019093040180E8809356
:1004B00003018093020180930101809300019091D8
:1004C0003D01913001F580930301809302018093F7
:1004D0000101809300018FEF8EBD0E944D01FF91BD
:1004E000EF91BF91AF919F918F917F916F915F91AC
:1004F0004F913F912F910F900FBE0F901F90189525
:1005000090E080E0CDCF80913D01823011F480E415
:10051000DACF80913D01833011F480ECD4CF21FDFE
:10052000DACF5093030140930201509301014093AD
:100530000001D1CF1092290110922801CCCFCF9386
:10054000DF93CDB7DEB76C970FB6F894DEBF0FBE62
:10055000CDBF789484B5826084BD84B5816084BD4C
:1005600085B5826085BD85B5816085BD80916E0051
:10057000816080936E001092810080918100826082
:1005800080938100809181008160809381008091BF
:1005900080008160809380008091B10084608093AE
:1005A000B1008091B00081608093B00080917A00AA
:1005B000846080937A0080917A00826080937A00D0
:1005C00080917A00816080937A0080917A008068BF
:1005D00080937A001092C10060E08AE00E947B0064
:1005E00060E08BE00E947B0060E08DE00E947B0079
:1005F00061E08CE00E947B00E0EBF0E08491ECE9AC
:10060000F0E09491E8E8F0E0E491EE23C9F088236B
:1006100051F0833009F43CC088F5813009F43EC0C4
:10062000823009F43FC0F0E0EE0FFF1FEE58FF4F9D
:10063000A591B4918FB7F894EC919E2B9C938FBFAA
:100640005F9860E087E00E947B000E944D0110925D
:10065000C10082E08093C0001092C50082E28093C6
:10066000C40086E08093C20088E18093C10080913D
:10067000C00087FF24C08091C600F9CF8730A9F061
:100680008830C9F0843079F6809180008F7D03C076
:10069000809180008F7780938000C5CF84B58F775D
:1006A00084BDC1CF84B58F7DFBCF8091B0008F77A3
:1006B0008093B000B8CF8091B0008F7DF9CF9E01BC
:1006C0002F5F3F4F79015901D12CC12CC6010E94E7
:1006D0005906D5018D935D01BFEFCB1ADB0AE5E129
:1006E000CE16D10499F797012D5E3F4F87E593E130
:1006F000582F569556955695492F4295440F407E52
:10070000152F142B9695969596958295880F807E39
:10071000092F082BD7018D917D01F801E827CF0122
:10072000C1962A173B0721F7EC88FD888A889B88A9
:10073000A888B9884E845F844C855D856A857B85F1
:10074000E885F985AE81BF810C811D817B80C980E0
:10075000DA8027E4C21620E5D20609F093C031E022
:10076000731290C0E816F90609F08CC00F3F11050E
:1007700011F008F087C0AF3FB10511F008F082C05A
:10078000CF0104978C3F910508F07CC0CB01049702
:100790008C3F910508F076C0CA0104978C3F910503
:1007A00008F070C0C20104978C3F910508F06AC040
:1007B0008FE7A80EB11C9FEFA916B10408F062C024
:1007C0002FE7820E911C3FEF8316910408F05AC068
:1007D0001093130100931201B0930D01A0930C012B
:1007E000F0931501E09314017093170160931601C3
:1007F00050930F0140930E0150921101409210014D
:1008000081E0809340018CEE8CBD8FEF8EBD809196
:10081000680081608093680080916B0084608093A1
:100820006B007894412C512C32014A94AE01415F07
:100830005F4F5F8B4E8BCE014496998F888F11E06E
:100840008091C00087FF06C08091C6008E3DE9F40C
:100850001093490182E0382E909149018091C000A7
:1008600087FFEFC18091C600923009F44AC010F5AD
:10087000992309F440C0913089F780931B0130928D
:100880004901EACF10924001BECF893419F79CE1AB
:10089000E92E91E0F92ED7018D917D01882319F081
:1008A0000E944601F8CF8DE00E9446018AE00E9436
:1008B0004601D0CF943089F150F1953079F68F3DD3
:1008C00009F0B8C1E09048018E2D807C09F08FC0FE
:1008D000A09047018A2D807F09F089C000911A01FC
:1008E000F0901B01BB24B3948E2D8071E4FC1BC0DF
:1008F000B12CC12C1DC08E3D09F0AECF1093490123
:10090000ABCF80931A01B3E0B0934901A5CF809398
:100910004801E4E0E09349019FCF80934701F5E06F
:10092000F093490199CFC0903F01C126882309F374
:100930002E2D21702C8FD0903E01D126E0FED12C9F
:1009400090913D0191117CC0882309F44CC18091A4
:100950003C0181114EC010933C0110923B010E945A
:10096000AC00609337017093380180933901909304
:100970003A01B0923F01DC8CD0923E01809140015F
:10098000882309F435C12091160130911701409157
:1009900014015091150160911201709113018F2D76
:1009A0000E94C300F82E2091100130911101409156
:1009B0000E0150910F0160910C0170910D01802F7B
:1009C0000E94C3009FB7F894F09219018093180118
:1009D000E0924201A09241019FBF0E94AC0060934F
:1009E000430170934401809345019093460190E048
:1009F00025C180913B018111BCCF0E94AC002091A8
:100A00003701309138014091390150913A01621B10
:100A1000730B840B950B683873418105910508F4BD
:100A2000A8CF10933B0110933D010E94AC0060934E
:100A3000330170933401809335019093360199CF3F
:100A40000E94AC0020913301309134014091350176
:100A500050913601621B730B840B950B6133754704
:100A60008105910518F00E94B80083CFC110FBCF1B
:100A7000DD2009F47ECF80913D01813039F4F09280
:100A80000B0100930A0130923D01CFCF80913D01CF
:100A9000823041F4F09209010093080153E0509331
:100AA0003D01C3CF80913D01833009F062CFF092C8
:100AB00007010093060120910B0130E080910901AC
:100AC0004901881A910880910A0190E0409108013B
:100AD000FC01E41BF109A4E08A1691040CF481C026
:100AE000E430F1050CF47DC06F2D70E0621B730BD8
:100AF000643071050CF475C0402F50E0481B590B51
:100B0000443051050CF46DC0309313012093120151
:100B100090930D0180930C01909215018092140125
:100B2000F0930F01E0930E0170931701609316018B
:100B3000509311014093100110934001AE89BF8979
:100B40000F2EF7E0DF2EF02D1D92DA94E9F7A7E4DF
:100B5000B0E5BA83A9831B833D832C839F838E8357
:100B6000998688867B876A87FD87EC875F874E87B3
:100B7000FE0131964F0187E593E1382F3695369582
:100B80003695292F2295220F207E322B3B8F96956A
:100B9000969596958295880F807E982B9A8F819155
:100BA0002A8D3B8D2827C901C196488D598D4E1736
:100BB0005F0719F79D8B8C8BD12CC12CD4012D9004
:100BC0004D01C6010E945906281621F0622DC6016A
:100BD0000E946106BFEFCB1ADB0AE5E1CE16D10415
:100BE00069F710923D0110923C0110923B01C1CE79
:100BF0002F2D30E0A7EDB0E00E94940661587F4FA2
:100C00008F4F9F4FA30192010E946F0682E1F82E41
:100C1000F20E202F30E0A1EDB0E00E949406615862
:100C20007F4F8F4F9F4FA30192010E946F068BE071
:100C3000820FC8CE91E08E3D09F0D9CE9093490144
:100C40000BCEC0904301D0904401E0904501F0905C
:100C50004601C114D104E104F10419F10E94AC0071
:100C60006C197D098E099F09673971058105910508
:100C7000C0F09FB7F89480E8809319018093180121
:100C800010924201109241019FBF109249011092AF
:100C900043011092440110924501109246010E94B6
:100CA000B80020E030E0232B09F4CACD0E940000F8
:100CB000C6CDF999FECF92BD81BDF89A992780B52E
:100CC0000895262FF999FECF1FBA92BD81BD20BD90
:100CD0000FB6F894FA9AF99A0FBE01960895052E68
:100CE00097FB1EF400940E94860657FD07D00E94D1
:100CF000A30607FC03D04EF40C948606509540954D
:100D0000309521953F4F4F4F5F4F089590958095B7
:100D1000709561957F4F8F4F9F4F0895EE0FFF1F86
:100D20000590F491E02D0994A29FB001B39FC001FA
:100D3000A39F700D811D1124911DB29F700D811D07
:100D40001124911D0895A1E21A2EAA1BBB1BFD01BF
:100D50000DC0AA1FBB1FEE1FFF1FA217B307E4079A
:100D6000F50720F0A21BB30BE40BF50B661F771FF2
:100D7000881F991F1A9469F76095709580959095D2
:0E0D80009B01AC01BD01CF010895F894FFCF97
:100D8E0080808080FFFFC0C0404080808000400097
:100D9E00400080004000400080808080534F4E59BC
:080DAE002D414E414C4F47005E
:00000001FF
