:100000000C945D000C9485000C9485000C94EF0218
:100010000C9485000C9485000C9485000C9485004C
:100020000C9485000C9485000C9485000C9485003C
:100030000C9485000C9485000C9485000C9485002C
:100040000C94DD010C947F020C944D020C94270259
:100050000C9485000C9485000C9485000C9485000C
:100060000C9485000C94850000000008000201003B
:100070000003040700000000000000000000000072
:10008000250028002B0000000000240027002A0083
:10009000040404040404040402020202020203032E
:1000A0000303030301020408102040800102040836
:1000B00010200102040810209F0611241FBECFEF5C
:1000C000D8E0DEBFCDBF11E0A0E0B1E0EEE5FEE09C
:1000D00002C005900D92AE32B107D9F721E0AEE231
:1000E000B1E001C01D92A03EB207E1F710E0CDE5FE
:1000F000D0E004C02197FE010E94EB06CC35D10769
:10010000C9F70E94B3030C942D070C940000CF9301
:10011000DF9390E0FC01EC55FF4F249180579F4FF7
:10012000FC0184918823C9F090E0880F991FFC019D
:10013000EA57FF4FA591B491FC01E458FF4FC591D8
:10014000D49161110DC09FB7F8948C9120958223B2
:100150008C938881282328839FBFDF91CF910895B6
:10016000623051F49FB7F8943C91822F809583239D
:100170008C93E8812E2BEFCF8FB7F894EC912E2B38
:100180002C938FBFEACFAF92BF92CF92DF92EF92C4
:10019000FF920F931F93CF93DF936C017B018B0131
:1001A000040F151FEB015E01AE18BF08C017D10781
:1001B00059F06991D601ED91FC910190F081E02D0B
:1001C000C6010995892B79F7C501DF91CF911F9160
:1001D0000F91FF90EF90DF90CF90BF90AF90089578
:1001E000FC01538D448D252F30E0842F90E0821B3D
:1001F000930B541710F0CF96089501970895FC01C2
:10020000918D828D981761F0A28DAE0FBF2FB11D19
:100210005D968C91928D9F5F9F73928F90E0089571
:100220008FEF9FEF0895FC01918D828D981731F02B
:10023000828DE80FF11D858D90E008958FEF9FEF7F
:100240000895FC01918D228D892F90E0805C9F4F55
:10025000821B91098F739927089580E391E00E9492
:10026000210121E0892B09F420E0822F089580E00C
:1002700090E0892B29F00E942D0181110C9400003F
:100280000895FC01A48DA80FB92FB11DA35ABF4F2B
:100290002C91848D90E001968F739927848FA68985
:1002A000B7892C93A089B1898C91837080648C93D9
:1002B000938D848D981306C00288F389E02D808188
:1002C0008F7D80830895EF92FF920F931F93CF93BA
:1002D000DF93EC0181E0888F9B8D8C8D98131AC081
:1002E000E889F989808185FF15C09FB7F894EE8968
:1002F000FF896083E889F9898081837080648083C5
:100300009FBF81E090E0DF91CF911F910F91FF900F
:10031000EF900895F62E0B8D10E00F5F1F4F0F73B7
:100320001127E02E8C8D8E110CC00FB607FCFACF72
:10033000E889F989808185FFF5CFCE010E944101CE
:10034000F1CFEB8DEC0FFD2FF11DE35AFF4FF08243
:100350009FB7F8940B8FEA89FB8980818062CFCFA9
:10036000CF93DF93EC01888D8823B9F0AA89BB89EC
:10037000E889F9898C9185FD03C0808186FD0DC0D7
:100380000FB607FCF7CF8C9185FFF2CF808185FFF8
:10039000EDCFCE010E944101E9CFDF91CF910895C9
:1003A000579808958AE38A95F1F700C05F98579AA5
:1003B00080E18A95F1F70C94D0011F920F920FB64D
:1003C0000F9211242F933F938F939F93AF93BF93DB
:1003D0008091DC019091DD01A091DE01B091DF01FF
:1003E0003091DB0123E0230F2D3758F50196A11D35
:1003F000B11D2093DB018093DC019093DD01A0937C
:10040000DE01B093DF018091D7019091D801A091D6
:10041000D901B091DA010196A11DB11D8093D701D8
:100420009093D801A093D901B093DA01BF91AF9115
:100430009F918F913F912F910F900FBE0F901F9022
:10044000189526E8230F0296A11DB11DD2CF1F9249
:100450000F920FB60F9211242F933F934F935F93F8
:100460006F937F938F939F93AF93BF93EF93FF937C
:1004700080E391E00E944101FF91EF91BF91AF9124
:100480009F918F917F916F915F914F913F912F91AC
:100490000F900FBE0F901F9018951F920F920FB6DE
:1004A0000F9211242F938F939F93EF93FF93E091DB
:1004B0004001F09141018081E0914601F0914701B6
:1004C00082FD1BC09081809149018F5F8F732091C5
:1004D0004A01821741F0E0914901F0E0E05DFE4FF2
:1004E000958F80934901FF91EF919F918F912F916B
:1004F0000F900FBE0F901F9018958081F4CF1F9220
:100500000F920FB60F9211242F933F934F935F9347
:100510006F937F938F939F93AF93BF93EF93FF93CB
:100520008EB590912F01992399F01A9911C0E091FD
:100530002E01E830A0F4F0E0E056FD4F0C94EB06FD
:10054000AD02CB02D102D602DB02E002E502EA02F2
:100550008FEF8EBD0E94D0010DC0813029F08FEF4A
:100560008EBD10922F01F6CF93E59EBD80932E0194
:100570000E94D201FF91EF91BF91AF919F918F9116
:100580007F916F915F914F913F912F910F900FBE8F
:100590000F901F901895823411F78AE58EBD82E086
:1005A000E5CF809105018EBD83E0E0CF809104010D
:1005B0008EBD84E0DBCF809103018EBD85E0D6CF78
:1005C000809102018EBD86E0D1CF809101018EBD68
:1005D00087E0CCCF809100018EBD88E0C7CF1F920D
:1005E0000F920FB60F9211242F933F934F935F9367
:1005F0006F937F938F939F93AF93BF93EF93FF93EB
:100600001A9968C081E080932F0110922E01709199
:100610000F01E0910E012091CF015091CE0149B11F
:100620004071852F8F70A22FA17020FF03C031E091
:10063000811101C030E0622F6872F22FF27021FF49
:1006400002C081114CC090E080E031110EC090E0FA
:1006500080E050FF02C080E190E051FD806452FDD7
:10066000806853FD8062A11166C0FF2309F469C050
:1006700067C0442309F475C0809590958093050167
:100680009093040180E8809303018093020180939A
:10069000010180930001683241F070930301E093FF
:1006A000020170930101E09300018FEF8EBD0E9463
:1006B000D001FF91EF91BF91AF919F918F917F9169
:1006C0006F915F914F913F912F910F900FBE0F90BF
:1006D0001F90189510922F0110922E01E6CF332310
:1006E00029F190E080E02DC08095909580930501E0
:1006F0009093040180E8809303018093020180932A
:10070000010180930001C9CF442359F18095909550
:10071000809305019093040180E880930301809306
:1007200002018093010180930001BFCF31E090E08E
:1007300080E0AA23B1F29064FF2319F0311101C0C7
:10074000946022FD906223FF03C0683209F0986034
:1007500024FD816025FF8DCF6832B1F288604111A0
:10076000C3CF946089CF789484B5826084BD84B50A
:10077000816084BD85B5826085BD85B5816085BD9C
:1007800080916E00816080936E0010928100809154
:1007900081008260809381008091810081608093DC
:1007A0008100809180008160809380008091B10001
:1007B00084608093B1008091B00081608093B0002C
:1007C00080917A00846080937A0080917A008260C0
:1007D00080937A0080917A00816080937A00809182
:1007E0007A00806880937A001092C10060E08AE00D
:1007F0000E94870060E08BE00E94870060E08DE04F
:100800000E94870061E08CE00E948700E4E7F0E04E
:100810008491E0EBF0E09491ECE9F0E0E491EE23D8
:10082000C9F0882351F0833009F440C0A8F5813025
:1008300009F442C0823009F443C0F0E0EE0FFF1F1C
:10084000E458FF4FA591B4918FB7F894EC919E2B8B
:100850009C938FBF5F9860E087E00E9487000E94B2
:10086000D00162E084E00E9487001092C10082E023
:100870008093C0001092C50082E28093C40086E09D
:100880008093C20080E18093C1008091C00087FF07
:1008900024C08091C600F9CF8730A9F08830C9F014
:1008A000843059F6809180008F7D03C08091800054
:1008B0008F7780938000C1CF84B58F7784BDBDCF03
:1008C00084B58F7DFBCF8091B0008F778093B0008F
:1008D000B4CF8091B0008F7DF9CF8CEE8CBD8FEFBF
:1008E0008EBD8091680081608093680080916B006C
:1008F000846080936B007894C12CD12C7601CA94CB
:1009000025E0322E34E0B32EC0E0D0E080E391E069
:100910000E94210118161906F4F480E391E00E9468
:1009200013018E3D9105B9F080E391E00E94FF0034
:100930008934910581F446E050E064E271E080E39F
:1009400091E00E94C30042E050E06BE271E080E37E
:1009500091E00E94C300AA24A39482E0982E909173
:10096000D6018091C00087FF9FC18091C600923060
:1009700009F420C150F4992309F416C1913089F784
:10098000809311019092D601EACF943009F41DC1F1
:1009900008F416C1953029F78F3D09F07EC100910A
:1009A000D501802F807C09F0FDC01091D401812FEA
:1009B000807F09F0F7C080901001A0911101809113
:1009C000CD018095812301FF05C182FF15C02091D3
:1009D0000A0130910B012F5F3F4F2038310514F091
:1009E0002FE730E021389FEF390714F421E83FEF7B
:1009F00030930B0120930A0183FF15C020910A0157
:100A000030910B01215031092038310514F02FE7C6
:100A100030E021389FEF390714F421E83FEF30939D
:100A20000B0120930A0181FF15C02091060130912E
:100A300007012F5F3F4F2038310514F02FE730E0DA
:100A400021389FEF390714F421E83FEF3093070175
:100A50002093060180FF14C0809106019091070148
:100A600001978038910514F08FE790E081382FEFDF
:100A7000920714F481E89FEF909307018093060199
:100A80001093CD0140900A0150900B01052C000CF1
:100A900066087708A7019601241935094609570900
:100AA0002419350946095709B0E00E94F10661583A
:100AB0007F4F8F4F9F4FA70196010E94CC06420E99
:100AC000531E641E751E20910C0130910D01032EE2
:100AD000000C440B550B420E531E641E751E212C38
:100AE00077FC0AC0242C8FEF48165104610471046E
:100AF00019F014F022242A94409006015090070126
:100B0000052C000C66087708A70196012419350901
:100B1000460957092419350946095709A82DB0E097
:100B20000E94F10661587F4F8F4F9F4FA70196019A
:100B30000E94CC06420E531E641E751E20910801B1
:100B400030910901032E000C440B550B420E531E2D
:100B5000641E751E77FC9CC09FEF4916510461040A
:100B6000710411F00CF096C08FB7F89420920F0129
:100B700040920E010093CF011093CE018FBF2FB78B
:100B8000F8948091DC019091DD01A091DE01B0919B
:100B9000DF012FBF8093D0019093D101A093D201A8
:100BA000B093D30190E07DC08E3D09F0D8CEA092E5
:100BB000D601D5CE8093100123E02093D601CFCE6D
:100BC0008093D501B092D601CACE8093D4013092E1
:100BD000D601C5CE00FF54CF82FF15C020910C0175
:100BE00030910D01215031092038310514F02FE7E3
:100BF00030E021389FEF390714F421E83FEF3093BC
:100C00000D0120930C0183FF15C020910C01309140
:100C10000D012F5F3F4F2038310514F02FE730E0F2
:100C200021389FEF390714F421E83FEF30930D018D
:100C300020930C0180FF15C020910801309109011B
:100C4000215031092038310514F02FE730E02138E8
:100C50009FEF390714F421E83FEF30930901209307
:100C6000080181FF0DCF8091080190910901019643
:100C70008038910514F08FE790E081382FEF9207CC
:100C800014F481E89FEF9093090180930801F8CE56
:100C9000412C6ACF44244A9467CF91E08E3D09F0FD
:100CA00081CF9093D6015BCE8091D0019091D101FC
:100CB000A091D201B091D301892B8A2B8B2BA1F16A
:100CC0002FB7F8948091DC019091DD01A091DE01B5
:100CD000B091DF012FBF4091D0015091D1016091BF
:100CE000D2017091D301841B950BA60BB70B8739EA
:100CF0009105A105B105C0F09FB7F89480E88093F5
:100D00000F0180930E011092CF011092CE019FBF70
:100D10001092D6011092D0011092D1011092D201FE
:100D20001092D3011092CD01209709F4EFCD0E94CB
:100D30002D01882309F4E8CD0E940000E5CDE0E311
:100D4000F1E01382128288EE93E0A0E0B0E08483A9
:100D50009583A683B78386E191E09183808385ECB8
:100D600090E09587848784EC90E09787868780EC75
:100D700090E0918B808B81EC90E0938B828B82EC66
:100D800090E0958B848B86EC90E0978B868B118E10
:100D9000128E138E148E0895052E97FB1EF4009468
:100DA0000E94E30657FD07D00E94FC0607FC03D013
:100DB0004EF40C94E30650954095309521953F4FA5
:100DC0004F4F5F4F089590958095709561957F4F37
:100DD0008F4F9F4F0895EE0FFF1F0590F491E02D68
:100DE00009940E941E07A59F900DB49F900DA49F8B
:100DF000800D911D11240895A1E21A2EAA1BBB1B80
:100E0000FD010DC0AA1FBB1FEE1FFF1FA217B307D6
:100E1000E407F50720F0A21BB30BE40BF50B661FEC
:100E2000771F881F991F1A9469F7609570958095B0
:100E300090959B01AC01BD01CF010895A29FB00127
:100E4000B39FC001A39F700D811D1124911DB29FFE
:0E0E5000700D811D1124911D0895F894FFCF9F
:100E5E0080808080FFFF1700F4FF1400FEFF80806B
:100E6E008080000000006301C300F000B00121018A
:0E0E7E00FF0013014B4F4E414D49000D0A007D
:00000001FF
