:100000000C945D000C9485000C9485000C9477048E
:100010000C9485000C9485000C9485000C9485004C
:100020000C9485000C9485000C9485000C9485003C
:100030000C9485000C9485000C9485000C9485002C
:100040000C9465030C9407040C94D5030C94AF0333
:100050000C9485000C9485000C9485000C9485000C
:100060000C9485000C94850000000008000201003B
:100070000003040700000000000000000000000072
:10008000250028002B0000000000240027002A0083
:10009000040404040404040402020202020203032E
:1000A0000303030301020408102040800102040836
:1000B0001020010204081020790911241FBECFEF7F
:1000C000D8E0DEBFCDBF11E0A0E0B1E0E8E2F4E1AE
:1000D00002C005900D92AE33B107D9F722E0AEE32E
:1000E000B1E001C01D92A330B207E1F710E0CDE509
:1000F000D0E004C02197FE010E94DB09CC35D10776
:10010000C9F70E9402050C94120A0C940000FC012D
:10011000AC01465F5F4F8FEF9FEF2191922728E060
:10012000BC01880F991F77FF04C031E2832730E1BB
:1001300093272150A9F7E417F50779F70895CF938E
:10014000DF9390E0FC01EC55FF4F249180579F4FC7
:10015000FC0184918823D1F090E0880F991FFC0165
:10016000EA57FF4FA591B491FC01E458FF4FC591A8
:10017000D49161110EC09FB7F8948C91E22FE09555
:100180008E238C932881E223E8839FBFDF91CF9158
:1001900008958FB7F894EC91E22BEC938FBFF6CFD4
:1001A0002FB7F8946091FF017091000280910102D5
:1001B000909102022FBF0895AF92BF92CF92DF922B
:1001C000EF92FF920F931F93CF93DF936C017B010C
:1001D0008B01040F151FEB015E01AE18BF08C0179D
:1001E000D10759F06991D601ED91FC910190F08110
:1001F000E02DC6010995892B79F7C501DF91CF91D3
:100200001F910F91FF90EF90DF90CF90BF90AF9034
:100210000895FC01538D448D252F30E0842F90E00C
:10022000821B930B541710F0CF96089501970895F1
:10023000FC01918D828D981761F0A28DAE0FBF2FBA
:10024000B11D5D968C91928D9F5F9F73928F90E010
:1002500008958FEF9FEF0895FC01918D828D98177F
:1002600031F0828DE80FF11D858D90E008958FEFBC
:100270009FEF0895FC01918D228D892F90E0805C85
:100280009F4F821B91098F73992708958CE591E008
:100290000E943A0121E0892B09F420E0822F089581
:1002A00080E090E0892B29F00E94460181110C9496
:1002B00000000895FC01A48DA80FB92FB11DA35A09
:1002C000BF4F2C91848D90E001968F739927848F76
:1002D000A689B7892C93A089B1898C918370806499
:1002E0008C93938D848D981306C00288F389E02D3A
:1002F00080818F7D80830895EF92FF920F931F93EB
:10030000CF93DF93EC0181E0888F9B8D8C8D9813C8
:100310001AC0E889F989808185FF15C09FB7F894D4
:10032000EE89FF896083E889F98980818370806420
:1003300080839FBF81E090E0DF91CF911F910F916B
:10034000FF90EF900895F62E0B8D10E00F5F1F4F7A
:100350000F731127E02E8C8D8E110CC00FB607FC89
:10036000FACFE889F989808185FFF5CFCE010E9417
:100370005A01F1CFEB8DEC0FFD2FF11DE35AFF4F2A
:10038000F0829FB7F8940B8FEA89FB8980818062A5
:10039000CFCFCF93DF93EC01888D8823B9F0AA8962
:1003A000BB89E889F9898C9185FD03C0808186FD30
:1003B0000DC00FB607FCF7CF8C9185FFF2CF80817F
:1003C00085FFEDCFCE010E945A01E9CFDF91CF9199
:1003D0000895FC01848181110FC0858181110CC0B9
:1003E0008681811109C08781811106C080858111B4
:1003F00003C081E09185911180E008951092500131
:1004000010924F0110924E01109252011092510120
:1004100010924501109244010895CF92DF92EF921D
:10042000FF920F931F93F22FE32F082F10E030E07D
:1004300020E06B01072E000CEE08FF088617170658
:10044000DCF5FA014430510514F4E4E0F0E0C01AA0
:10045000D10AE20AF30A26E0CC0CDD1CEE1CFF1CDC
:100460002A95D1F7AF0155954795052E000C660BDF
:10047000770BCB01BA016C0D7D1D8E1D9F1D9F0159
:10048000FF0F440B550B0E94BC0980E890E0A0E0F0
:10049000B0E0821B930BA40BB50BB7FD3DC08F3FA3
:1004A0009105A105B10509F0CCF51F910F91FF90C1
:1004B000EF90DF90CF9008954F2F5E2F443051057D
:1004C00014F444E050E0D901C8018C199D09AE092B
:1004D000BF096C017D0186E0CC0CDD1CEE1CFF1C0D
:1004E0008A95D1F78A0115950795012E000C220BEC
:1004F000330BC701B601600F711F821F931F9A0152
:10050000550F440B550B0E94BC09DA01C9018058F4
:100510009F4FAF4FBF4FC1CF80E0C7CF8FEFC5CF49
:10052000CF93DF93EC01888199818734904579F4EA
:100530008A81823061F48B818C3049F4CE010E9433
:10054000870021E04A855B854817590709F020E0BC
:10055000822FDF91CF910895EF92FF920F931F9317
:1005600090E0FC01E41BF109AF013497A4F110E025
:10057000081B190B0430110574F170E0FB01E21B3C
:10058000F1099F0134973CF1F12CE61AF70AF4E0E7
:10059000EF16F10404F1909313018093120170930C
:1005A0000D0160930C0150931501409314011093B9
:1005B00017010093160130930F0120930E01F09262
:1005C0001101E092100181E0809353011F910F917E
:1005D000FF90EF90089580E0F9CF57980895EF923B
:1005E000FF920F931F93CF93DF937C018C01C2E0A6
:1005F000D0E0CE010E94A609F80181938F012196D7
:10060000CE30D105B1F7C701DF91CF911F910F9186
:10061000FF90EF900895FF920F931F93CF93DF9376
:100620008C01C2E0D0E0F801F1908F01CE010E9470
:10063000A609F81621F06F2DCE010E94AE09219671
:10064000CE30D10581F7DF91CF911F910F91FF90AF
:100650000895EF920F93CF93DF93CDB7DEB72C972A
:100660000FB6F894DEBF0FBECDBF1C861B86E7E435
:10067000F0E5FA83E98392E09B839CE09C838D8381
:100680006E834F8328870987EA86CE0101960E94F0
:1006900087009C878B87CE0101960E940B032C96C6
:1006A0000FB6F894DEBF0FBECDBFDF91CF910F9193
:1006B000EF9008958AE38A95F1F700C05F98579A02
:1006C00080E18A95F1F70C94ED021F920F920FB61C
:1006D0000F9211242F933F938F939F93AF93BF93C8
:1006E0008091FF0190910002A0910102B09102025D
:1006F0003091FE0123E0230F2D3758F50196A11DFF
:10070000B11D2093FE018093FF0190930002A093FE
:100710000102B09302028091FA019091FB01A09135
:10072000FC01B091FD010196A11DB11D8093FA015C
:100730009093FB01A093FC01B093FD01BF91AF9199
:100740009F918F913F912F910F900FBE0F901F900F
:10075000189526E8230F0296A11DB11DD2CF1F9236
:100760000F920FB60F9211242F933F934F935F93E5
:100770006F937F938F939F93AF93BF93EF93FF9369
:100780008CE591E00E945A01FF91EF91BF91AF91EA
:100790009F918F917F916F915F914F913F912F9199
:1007A0000F900FBE0F901F9018951F920F920FB6CB
:1007B0000F9211242F938F939F93EF93FF93E091C8
:1007C0006C01F0916D018081E0917201F0917301F3
:1007D00082FD1BC09081809175018F5F8F73209186
:1007E0007601821741F0E0917501F0E0E45AFE4F86
:1007F000958F80937501FF91EF919F918F912F912C
:100800000F900FBE0F901F9018958081F4CF1F920C
:100810000F920FB60F9211242F933F934F935F9334
:100820006F937F938F939F93AF93BF93EF93FF93B8
:100830008EB590913F01992399F01A9911C0E091DA
:100840003E01E830A0F4F0E0E85DFB4F0C94DB09DA
:100850003504530459045E04630468046D0472048F
:100860008FEF8EBD0E94ED020DC0813029F08FEF19
:100870008EBD10923F01F6CF93E59EBD80933E0161
:100880000E945A03FF91EF91BF91AF919F918F9179
:100890007F916F915F914F913F912F910F900FBE7C
:1008A0000F901F901895823411F78AE58EBD82E073
:1008B000E5CF809105018EBD83E0E0CF80910401FA
:1008C0008EBD84E0DBCF809103018EBD85E0D6CF65
:1008D000809102018EBD86E0D1CF809101018EBD55
:1008E00087E0CCCF809100018EBD88E0C7CF1F92FA
:1008F0000F920FB60F9211242F933F934F935F9354
:100900006F937F938F939F93AF93BF93EF93FF93D7
:100910001A9973C081E080933F0110923E0150917B
:100920001901409118012091550130915401809195
:100930005001811148C090E080E021FF0CC080E1AF
:1009400090E030FD02C090E080E031FD806432FD37
:10095000806833FD806220FD906822FD906423FD55
:10096000906225FD88608095909580930501909315
:10097000040180E8809303018093020180930101C8
:100980008093000190915001913001F58093030113
:100990008093020180930101809300018FEF8EBD4F
:1009A0000E94ED02FF91EF91BF91AF919F918F91C6
:1009B0007F916F915F914F913F912F910F900FBE5B
:1009C0000F901F90189590E080E0CDCF809150015E
:1009D000823011F480E4DACF80915001833011F439
:1009E00080ECD4CF21FDDACF509303014093020174
:1009F0005093010140930001D1CF10923F0110921A
:100A00003E01CCCFCF93DF93CDB7DEB76A970FB659
:100A1000F894DEBF0FBECDBF789484B5826084BDEC
:100A200084B5816084BD85B5826085BD85B58160F2
:100A300085BD80916E00816080936E001092810070
:100A4000809181008260809381008091810081602B
:100A500080938100809180008160809380008091EC
:100A6000B10084608093B1008091B0008160809378
:100A7000B00080917A00846080937A0080917A003F
:100A8000826080937A0080917A00816080937A00FE
:100A900080917A00806880937A001092C10060E0B3
:100AA0008AE00E949F0060E08BE00E949F0060E06F
:100AB0008DE00E949F0061E08CE00E949F00E4E7CF
:100AC000F0E08491E0EBF0E09491ECE9F0E0E49167
:100AD000EE23D1F0882359F0833009F4F9C008F0EF
:100AE000ECC0813009F4FAC0823009F4FBC0F0E0B8
:100AF000EE0FFF1FE458FF4FA591B4918FB7F89404
:100B0000EC919E2B9C938FBF5F9860E087E00E94E2
:100B10009F000E94ED02E0916C01F0916D0182E076
:100B20008083E0916C01F0916D011082E091680189
:100B3000F09169011082E0916A01F0916B0180E10E
:100B4000808310927401E0917001F091710186E050
:100B50008083E0916E01F0916F01808180618083DC
:100B6000E0916E01F0916F01808188608083E09157
:100B70006E01F0916F01808180688083E0916E0149
:100B8000F0916F0180818F7D808310925301CE019F
:100B900001960E94EF02CE0101960E9490028823E6
:100BA00081F0CE0101960E94E90181110AC0EA8418
:100BB000098528854F816E818D810E94AC0281114B
:100BC00014C0CE0101960E94EF02CE0101960E9450
:100BD0009002882309F493C0CE0101960E94E90196
:100BE000882309F48CC0109253018CEE8CBD8FEFDA
:100BF0008EBD8091680081608093680080916B0059
:100C0000846080936B007894212C312C21012A94EC
:100C1000AE014B5F5F4F5F8B4E8B90E4692E712C62
:100C20008CE591E00E943A01181619061CF5809196
:100C3000F90181111FC08CE591E00E942C018E3DCD
:100C40009105C1F08934910509F02DC18CE591E041
:100C50000E9418014BE050E06EE271E08CE591E0FB
:100C60000E94DC0042E050E06AE371E08CE591E034
:100C70000E94DC00DD24D3948CE591E00E943A01CF
:100C8000181619060CF0A6C11091F901112309F4E8
:100C900099C18CE591E00E941801123009F4DAC183
:100CA00008F006C1112309F4D2C1113029F780934D
:100CB0001B0152E05093F901DFCF8730B1F088304B
:100CC000D1F0843009F013CF809180008F7D03C074
:100CD000809180008F778093800009CF84B58F77D3
:100CE00084BD05CF84B58F7DFBCF8091B0008F7719
:100CF0008093B000FCCE8091B0008F7DF9CFAE0123
:100D00004F5F5F4F5A014A0110E000E0C8010E94A6
:100D1000A609F40181934F010F5F1F4F05311105A3
:100D2000A9F789819A818734904509F05CCF8B813E
:100D3000813009F058CF21E030E02C0F3D1F2D5EAF
:100D40003F4F87E593E1582F569556955695492F75
:100D50004295440F407ED52ED42A96959695969529
:100D60008295880F807EC92EC82AF50181915F0186
:100D7000A6014827CA01C196E217F30721F72C897B
:100D80003D892817390709F02ECF2A893B894889E0
:100D900059898E849F846C857D858A859B85E885AD
:100DA000F985AE80BF80CC80DD80AFEFCA16D1045C
:100DB00011F008F018CFAFEFAA16B10411F008F047
:100DC00012CFDF011497AC3FB10508F00CCFDC0166
:100DD0001497AC3FB10508F006CFDB011497AC3F88
:100DE000B10508F000CFD4011497AC3FB10508F06D
:100DF000FACE41585F4F4F3F510508F0F4CE2158CD
:100E00003F4F2F3F310508F0EECE96012E1B3F0BD2
:100E100037FF02C030E020E0122FA501461B570B20
:100E200057FF02C050E040E0F42E8C0D9D1D8F3F17
:100E3000910519F014F08FEF90E0782E8A0C9B1C2E
:100E4000EFEF8E16910421F01CF088248A94912CE7
:100E50008C199D09B501641B750BA4014A195B0926
:100E6000F601E21BF30B34970CF4BDCE04970CF49F
:100E7000BACE643071050CF4B6CE443051050CF492
:100E8000B2CEE82C072D2F2D412F6A2D8C2D0E94DC
:100E900029032F2D412F6A2D8C2D0E94AC0288230F
:100EA00009F4A1CEA2CE8CE591E00E941801E2CE19
:100EB000143009F4DBC008F4D3C0153009F0DCCEDF
:100EC0008F3D09F0F4C1C0905B018C2D807C09F04E
:100ED00077C0A0915A01A88F8A2F807F09F070C037
:100EE00010911A01F0901B01E1E0E98F0C2D0071C7
:100EF000909052019D24C4FC02C0198E912CFC2DAF
:100F0000F170FA8FA0905101AD24C0FEA12C809108
:100F100050018111E1C0002309F4D9C080914F0133
:100F20008111AAC0D0924F0110924E010E94D000B0
:100F300060934A0170934B0180934C0190934D0153
:100F4000E98DE0935201FA8DF093510180915301A4
:100F5000882309F48BC1209116013091170140912B
:100F600014015091150160911201709113018F2DA0
:100F70000E940D02082F2091100130911101409123
:100F80000E0150910F0160910C0170910D01812FA4
:100F90000E940D029FB7F8940093190180931801E5
:100FA000C0925501288D209354019FBF0E94D0000C
:100FB00060935601709357018093580190935901A3
:100FC00090E057C08CE591E00E942C018E3D910588
:100FD00009F45FCE8090560190905701A09058017F
:100FE000B090590181149104A104B10419F10E9437
:100FF000D000681979098A099B096739710581054B
:101000009105C0F09FB7F89480E880931901809310
:10101000180110925501109254019FBF1092F901CE
:1010200010925601109257011092580110925901D6
:101030000E94FE0140E050E0452B09F4F1CD0E94F2
:101040004601882309F4ECCD0E940000E9CDD0923E
:10105000F90112CE80931A0163E06093F9010CCE7E
:1010600080935B0184E08093F90106CE80935A015E
:1010700095E09093F90100CE80914E01811160CFEF
:101080000E94D00080904A0190904B01A0904C01AA
:10109000B0904D01681979098A099B096838734134
:1010A0008105910508F44CCFD0924E01D0925001A9
:1010B0000E94D000609346017093470180934801DD
:1010C00090934901109245011092440139CF10923A
:1010D0004F0110924E0134CF0E94D0002091460162
:1010E000309147014091480150914901621B730BB7
:1010F000840B950B613375478105910518F00E94AB
:10110000FE011ECF992071F0D0924501109244014A
:101110000E94D0006093400170934101809342018E
:101120009093430180914501882309F4C8C00023AE
:1011300031F3809144018111BFC00E94D0008090A2
:10114000400190904101A0904201B0904301681984
:1011500079098A099B09683873418105910508F46A
:10116000ABC0D0924401EE89FF8928E011922A9504
:10117000E9F747E450E55A83498352E05B836CE02A
:101180006C83CE0101960E9487009C878B87CE01DD
:1011900001960E940B031092530180E890E0909317
:1011A00013018093120190930D0180930C017092B2
:1011B00015016092140170921701609216017092ED
:1011C0000F0160920E01709211016092100197CF91
:1011D00080915001823041F4F0920901109308018E
:1011E000A3E0A09350017AC080915001833009F0B0
:1011F000A7CEF09207011093060180900901A090FC
:101200000B012A2D30E0C9018819910904973CF19E
:101210008F2D90E0821B930B04970CF1B090080186
:1012200090900A01292D30E0C9018B19910904978A
:10123000B4F0812F90E0821B930B049784F0E12E91
:101240000F2D2B2D482D692D8A2D0E94AC0288234D
:1012500031F02B2D482D692D8A2D0E9429031092E3
:10126000500110924F0110924E012CCF2F2D30E0E3
:10127000A7EDB0E00E94E10961587F4F8F4F9F4F6B
:10128000A20191010E94BC0902E1020F212F30E06E
:10129000A1EDB0E00E94E10961587F4F8F4F9F4F51
:1012A000A20191010E94BC098BE0820F73CE91E0F4
:1012B0008E3D09F085CEDDCE011142CE20CFAA2091
:1012C00009F43ECE80915001813009F081CFF09237
:1012D0000B0110930A0192E0909350010E94D000FC
:1012E00060934601709347018093480190934901B0
:1012F00027CEECE5F1E01382128288EE93E0A0E0C5
:10130000B0E084839583A683B78380E291E09183E4
:10131000808385EC90E09587848784EC90E09787C4
:10132000868780EC90E0918B808B81EC90E0938BB2
:10133000828B82EC90E0958B848B86EC90E0978B8F
:10134000868B118E128E138E148E0895F999FECF0E
:1013500092BD81BDF89A992780B50895262FF999F5
:10136000FECF1FBA92BD81BD20BD0FB6F894FA9A88
:10137000F99A0FBE01960895052E97FB1EF400946E
:101380000E94D30957FD07D00E94F00907FC03D043
:101390004EF40C94D30950954095309521953F4FCC
:1013A0004F4F5F4F089590958095709561957F4F51
:1013B0008F4F9F4F0895EE0FFF1F0590F491E02D82
:1013C0000994A29FB001B39FC001A39F700D811D1E
:1013D0001124911DB29F700D811D1124911D08953E
:1013E000A1E21A2EAA1BBB1BFD010DC0AA1FBB1F29
:1013F000EE1FFF1FA217B307E407F50720F0A21B9B
:10140000B30BE40BF50B661F771F881F991F1A9407
:1014100069F760957095809590959B01AC01BD0131
:08142000CF010895F894FFCFFD
:1014280080808080FFFFC0C04040808080004000F6
:101438004000800040004000808080800000000064
:101448007C01DC000901C9013A0118012C01534F44
:0E1458004E592D414E414C4F47000D0A0000E9
:00000001FF
